Component: ARM Compiler 6.16 Tool: armlink [5dfeaa00]

==============================================================================

Image Symbol Table

    Local Symbols

    Symbol Name                              Value     Ov Type        Size  Object(Section)

    ../clib/division.s                       0x00000000   Number         0  aeabi_sdiv.o ABSOLUTE
    ../clib/division.s                       0x00000000   Number         0  aeabi_sdiv_div0.o ABSOLUTE
    ../clib/microlib/division.c              0x00000000   Number         0  uidiv.o ABSOLUTE
    ../clib/microlib/division.c              0x00000000   Number         0  uidiv_div0.o ABSOLUTE
    ../clib/microlib/division.c              0x00000000   Number         0  idiv_div0.o ABSOLUTE
    ../clib/microlib/division.c              0x00000000   Number         0  idiv0.o ABSOLUTE
    ../clib/microlib/init/entry.s            0x00000000   Number         0  entry.o ABSOLUTE
    ../clib/microlib/init/entry.s            0x00000000   Number         0  entry2.o ABSOLUTE
    ../clib/microlib/init/entry.s            0x00000000   Number         0  entry5.o ABSOLUTE
    ../clib/microlib/init/entry.s            0x00000000   Number         0  entry7a.o ABSOLUTE
    ../clib/microlib/init/entry.s            0x00000000   Number         0  entry7b.o ABSOLUTE
    ../clib/microlib/init/entry.s            0x00000000   Number         0  entry8a.o ABSOLUTE
    ../clib/microlib/init/entry.s            0x00000000   Number         0  entry8b.o ABSOLUTE
    ../clib/microlib/init/entry.s            0x00000000   Number         0  entry9a.o ABSOLUTE
    ../clib/microlib/init/entry.s            0x00000000   Number         0  entry9b.o ABSOLUTE
    ../clib/microlib/init/entry.s            0x00000000   Number         0  entry10a.o ABSOLUTE
    ../clib/microlib/init/entry.s            0x00000000   Number         0  entry10b.o ABSOLUTE
    ../clib/microlib/init/entry.s            0x00000000   Number         0  entry11a.o ABSOLUTE
    ../clib/microlib/init/entry.s            0x00000000   Number         0  entry11b.o ABSOLUTE
    ../clib/microlib/stdio/puts.c            0x00000000   Number         0  puts.o ABSOLUTE
    ../clib/microlib/stdio/puts.c            0x00000000   Number         0  puts_e.o ABSOLUTE
    ../clib/microlib/stdio/streams.c         0x00000000   Number         0  stdout.o ABSOLUTE
    ../clib/microlib/stubs.s                 0x00000000   Number         0  iusefp.o ABSOLUTE
    ../fplib/microlib/fpadd.c                0x00000000   Number         0  fadd.o ABSOLUTE
    ../fplib/microlib/fpdiv.c                0x00000000   Number         0  fdiv.o ABSOLUTE
    ../fplib/microlib/fpepilogue.c           0x00000000   Number         0  fepilogue.o ABSOLUTE
    ../fplib/microlib/fpfix.c                0x00000000   Number         0  ffixi.o ABSOLUTE
    ../fplib/microlib/fpflt.c                0x00000000   Number         0  ffltui.o ABSOLUTE
    dc.s                                     0x00000000   Number         0  dc.o ABSOLUTE
    ddl.c                                    0x00000000   Number         0  ddl.o ABSOLUTE
    gpio.c                                   0x00000000   Number         0  gpio.o ABSOLUTE
    handlers.s                               0x00000000   Number         0  handlers.o ABSOLUTE
    init.s                                   0x00000000   Number         0  init.o ABSOLUTE
    interrupts_hc32f030.c                    0x00000000   Number         0  interrupts_hc32f030.o ABSOLUTE
    main.c                                   0x00000000   Number         0  main.o ABSOLUTE
    startup_hc32f030.s                       0x00000000   Number         0  startup_hc32f030.o ABSOLUTE
    sysctrl.c                                0x00000000   Number         0  sysctrl.o ABSOLUTE
    system_hc32f030.c                        0x00000000   Number         0  system_hc32f030.o ABSOLUTE
    uart.c                                   0x00000000   Number         0  uart.o ABSOLUTE
    RESET                                    0x00000000   Section      192  startup_hc32f030.o(RESET)
    .ARM.Collect$$$$00000000                 0x000000c0   Section        0  entry.o(.ARM.Collect$$$$00000000)
    .ARM.Collect$$$$00000001                 0x000000c0   Section        4  entry2.o(.ARM.Collect$$$$00000001)
    .ARM.Collect$$$$00000004                 0x000000c4   Section        4  entry5.o(.ARM.Collect$$$$00000004)
    .ARM.Collect$$$$00000008                 0x000000c8   Section        0  entry7b.o(.ARM.Collect$$$$00000008)
    .ARM.Collect$$$$0000000A                 0x000000c8   Section        0  entry8b.o(.ARM.Collect$$$$0000000A)
    .ARM.Collect$$$$0000000B                 0x000000c8   Section        8  entry9a.o(.ARM.Collect$$$$0000000B)
    __lit__00000000                          0x000000d0   Data           4  entry2.o(.ARM.Collect$$$$00002712)
    .ARM.Collect$$$$0000000D                 0x000000d0   Section        0  entry10a.o(.ARM.Collect$$$$0000000D)
    .ARM.Collect$$$$0000000F                 0x000000d0   Section        0  entry11a.o(.ARM.Collect$$$$0000000F)
    .ARM.Collect$$$$00002712                 0x000000d0   Section        4  entry2.o(.ARM.Collect$$$$00002712)
    .text                                    0x000000d4   Section       60  startup_hc32f030.o(.text)
    .text                                    0x00000110   Section        0  fadd.o(.text)
    .text                                    0x000001c2   Section        0  fdiv.o(.text)
    .text                                    0x0000023e   Section        0  ffltui.o(.text)
    .text                                    0x0000024c   Section        0  ffixi.o(.text)
    .text                                    0x0000027e   Section        0  uidiv_div0.o(.text)
    .text                                    0x000002bc   Section        0  iusefp.o(.text)
    .text                                    0x000002bc   Section        0  fepilogue.o(.text)
    .text                                    0x00000340   Section       36  init.o(.text)
    [Anonymous Symbol]                       0x00000364   Section        0  system_hc32f030.o(.text.$Sub$$main)
    [Anonymous Symbol]                       0x00000372   Section        0  interrupts_hc32f030.o(.text.ADC_IRQHandler)
    [Anonymous Symbol]                       0x0000037c   Section        0  main.o(.text.App_PortInit)
    __arm_cp.1_0                             0x00000430   Number         4  main.o(.text.App_PortInit)
    [Anonymous Symbol]                       0x00000434   Section        0  interrupts_hc32f030.o(.text.CLKTRIM_IRQHandler)
    [Anonymous Symbol]                       0x0000043c   Section        0  interrupts_hc32f030.o(.text.DMAC_IRQHandler)
    [Anonymous Symbol]                       0x00000444   Section        0  interrupts_hc32f030.o(.text.EnableNvic)
    __arm_cp.0_0                             0x000004b0   Number         4  interrupts_hc32f030.o(.text.EnableNvic)
    __arm_cp.0_1                             0x000004b4   Number         4  interrupts_hc32f030.o(.text.EnableNvic)
    __arm_cp.0_2                             0x000004b8   Number         4  interrupts_hc32f030.o(.text.EnableNvic)
    __arm_cp.0_3                             0x000004bc   Number         4  interrupts_hc32f030.o(.text.EnableNvic)
    __arm_cp.0_4                             0x000004c0   Number         4  interrupts_hc32f030.o(.text.EnableNvic)
    [Anonymous Symbol]                       0x000004c4   Section        0  interrupts_hc32f030.o(.text.FLASH_RAM_IRQHandler)
    [Anonymous Symbol]                       0x000004d0   Section        0  ddl.o(.text.GetBit)
    [Anonymous Symbol]                       0x000004dc   Section        0  gpio.o(.text.Gpio_Init)
    __arm_cp.0_0                             0x00000558   Number         4  gpio.o(.text.Gpio_Init)
    __arm_cp.0_1                             0x0000055c   Number         4  gpio.o(.text.Gpio_Init)
    __arm_cp.0_3                             0x00000560   Number         4  gpio.o(.text.Gpio_Init)
    [Anonymous Symbol]                       0x00000564   Section        0  gpio.o(.text.Gpio_SetAfMode)
    __arm_cp.11_0                            0x00000570   Number         4  gpio.o(.text.Gpio_SetAfMode)
    [Anonymous Symbol]                       0x00000574   Section        0  interrupts_hc32f030.o(.text.HardFault_Handler)
    [Anonymous Symbol]                       0x00000584   Section        0  interrupts_hc32f030.o(.text.I2C0_IRQHandler)
    [Anonymous Symbol]                       0x0000058c   Section        0  interrupts_hc32f030.o(.text.I2C1_IRQHandler)
    [Anonymous Symbol]                       0x00000594   Section        0  interrupts_hc32f030.o(.text.LVD_IRQHandler)
    [Anonymous Symbol]                       0x0000059c   Section        0  interrupts_hc32f030.o(.text.PCA_IRQHandler)
    [Anonymous Symbol]                       0x000005a4   Section        0  interrupts_hc32f030.o(.text.PORTA_IRQHandler)
    [Anonymous Symbol]                       0x000005ac   Section        0  interrupts_hc32f030.o(.text.PORTB_IRQHandler)
    [Anonymous Symbol]                       0x000005b4   Section        0  interrupts_hc32f030.o(.text.PORTC_IRQHandler)
    [Anonymous Symbol]                       0x000005bc   Section        0  interrupts_hc32f030.o(.text.PORTD_IRQHandler)
    [Anonymous Symbol]                       0x000005c4   Section        0  interrupts_hc32f030.o(.text.SPI0_IRQHandler)
    [Anonymous Symbol]                       0x000005cc   Section        0  interrupts_hc32f030.o(.text.SPI1_IRQHandler)
    [Anonymous Symbol]                       0x000005d4   Section        0  ddl.o(.text.SetBit)
    [Anonymous Symbol]                       0x000005ec   Section        0  sysctrl.o(.text.Sysctrl_GetHClkFreq)
    __arm_cp.8_0                             0x000006c8   Number         4  sysctrl.o(.text.Sysctrl_GetHClkFreq)
    __arm_cp.8_2                             0x000006cc   Number         4  sysctrl.o(.text.Sysctrl_GetHClkFreq)
    __arm_cp.8_4                             0x000006d0   Number         4  sysctrl.o(.text.Sysctrl_GetHClkFreq)
    __arm_cp.8_5                             0x000006d4   Number         4  sysctrl.o(.text.Sysctrl_GetHClkFreq)
    __arm_cp.8_6                             0x000006d8   Number         4  sysctrl.o(.text.Sysctrl_GetHClkFreq)
    __arm_cp.8_7                             0x000006dc   Number         4  sysctrl.o(.text.Sysctrl_GetHClkFreq)
    __arm_cp.8_8                             0x000006e0   Number         4  sysctrl.o(.text.Sysctrl_GetHClkFreq)
    [Anonymous Symbol]                       0x000006e4   Section        0  sysctrl.o(.text.Sysctrl_GetPClkFreq)
    __arm_cp.9_0                             0x000006f8   Number         4  sysctrl.o(.text.Sysctrl_GetPClkFreq)
    [Anonymous Symbol]                       0x000006fc   Section        0  sysctrl.o(.text.Sysctrl_SetPeripheralGate)
    __arm_cp.18_0                            0x0000070c   Number         4  sysctrl.o(.text.Sysctrl_SetPeripheralGate)
    [Anonymous Symbol]                       0x00000710   Section        0  system_hc32f030.o(.text.SystemCoreClockUpdate)
    [Anonymous Symbol]                       0x0000071c   Section        0  system_hc32f030.o(.text.SystemInit)
    __arm_cp.1_0                             0x00000748   Number         4  system_hc32f030.o(.text.SystemInit)
    __arm_cp.1_1                             0x0000074c   Number         4  system_hc32f030.o(.text.SystemInit)
    __arm_cp.1_2                             0x00000750   Number         4  system_hc32f030.o(.text.SystemInit)
    __arm_cp.1_3                             0x00000754   Number         4  system_hc32f030.o(.text.SystemInit)
    __arm_cp.1_4                             0x00000758   Number         4  system_hc32f030.o(.text.SystemInit)
    __arm_cp.1_5                             0x0000075c   Number         4  system_hc32f030.o(.text.SystemInit)
    [Anonymous Symbol]                       0x00000760   Section        0  interrupts_hc32f030.o(.text.TIM0_IRQHandler)
    [Anonymous Symbol]                       0x00000768   Section        0  interrupts_hc32f030.o(.text.TIM1_IRQHandler)
    [Anonymous Symbol]                       0x00000770   Section        0  interrupts_hc32f030.o(.text.TIM2_IRQHandler)
    [Anonymous Symbol]                       0x00000778   Section        0  interrupts_hc32f030.o(.text.TIM3_IRQHandler)
    [Anonymous Symbol]                       0x00000780   Section        0  interrupts_hc32f030.o(.text.TIM4_IRQHandler)
    [Anonymous Symbol]                       0x00000788   Section        0  interrupts_hc32f030.o(.text.TIM5_IRQHandler)
    [Anonymous Symbol]                       0x00000790   Section        0  interrupts_hc32f030.o(.text.TIM6_IRQHandler)
    [Anonymous Symbol]                       0x00000798   Section        0  interrupts_hc32f030.o(.text.UART0_IRQHandler)
    [Anonymous Symbol]                       0x000007a0   Section        0  interrupts_hc32f030.o(.text.UART1_IRQHandler)
    [Anonymous Symbol]                       0x000007a8   Section        0  uart.o(.text.Uart_ClrStatus)
    [Anonymous Symbol]                       0x000007b8   Section        0  uart.o(.text.Uart_EnableFunc)
    [Anonymous Symbol]                       0x000007c6   Section        0  uart.o(.text.Uart_EnableIrq)
    [Anonymous Symbol]                       0x000007d4   Section        0  uart.o(.text.Uart_Init)
    [Anonymous Symbol]                       0x00000844   Section        0  uart.o(.text.Uart_SendDataPoll)
    [Anonymous Symbol]                       0x0000087c   Section        0  interrupts_hc32f030.o(.text.VC0_IRQHandler)
    [Anonymous Symbol]                       0x00000884   Section        0  interrupts_hc32f030.o(.text.VC1_IRQHandler)
    [Anonymous Symbol]                       0x0000088c   Section        0  interrupts_hc32f030.o(.text.WDT_IRQHandler)
    [Anonymous Symbol]                       0x00000894   Section        0  ddl.o(.text.ddl_memclr)
    [Anonymous Symbol]                       0x000008a8   Section        0  ddl.o(.text.delay1ms)
    __arm_cp.8_0                             0x000008e8   Number         4  ddl.o(.text.delay1ms)
    __arm_cp.8_1                             0x000008ec   Number         4  ddl.o(.text.delay1ms)
    __arm_cp.8_2                             0x000008f0   Number         4  ddl.o(.text.delay1ms)
    [Anonymous Symbol]                       0x000008f4   Section        0  ddl.o(.text.fputc)
    [Anonymous Symbol]                       0x00000908   Section        0  main.o(.text.main)
    i.__scatterload_copy                     0x00000928   Section       14  handlers.o(i.__scatterload_copy)
    i.__scatterload_null                     0x00000936   Section        2  handlers.o(i.__scatterload_null)
    i.__scatterload_zeroinit                 0x00000938   Section       14  handlers.o(i.__scatterload_zeroinit)
    i.puts                                   0x00000948   Section        0  puts.o(i.puts)
    .data                                    0x20000000   Section        4  stdout.o(.data)
    STACK                                    0x20000008   Section      512  startup_hc32f030.o(STACK)

    Global Symbols

    Symbol Name                              Value     Ov Type        Size  Object(Section)

    BuildAttributes$$THM_ISAv3M$S$PE$A:L22$X:L11$S22$IEEE1$IW$~IW$USESV6$~STKCKD$USESV7$WCHAR32$ENUMINT$~SHL$OTIME$ROPI$EBA8$MICROLIB$REQ8$PRES8$EABIv2 0x00000000   Number         0  anon$$obj.o ABSOLUTE
    __Vectors                                0x00000000   Data           0  startup_hc32f030.o(RESET)
    Adc_IRQHandler                            - Undefined Weak Reference
    ClkTrim_IRQHandler                        - Undefined Weak Reference
    Dmac_IRQHandler                           - Undefined Weak Reference
    Flash_IRQHandler                          - Undefined Weak Reference
    I2c0_IRQHandler                           - Undefined Weak Reference
    I2c1_IRQHandler                           - Undefined Weak Reference
    Lvd_IRQHandler                            - Undefined Weak Reference
    Pca_IRQHandler                            - Undefined Weak Reference
    PortA_IRQHandler                          - Undefined Weak Reference
    PortB_IRQHandler                          - Undefined Weak Reference
    PortC_IRQHandler                          - Undefined Weak Reference
    PortD_IRQHandler                          - Undefined Weak Reference
    Ram_IRQHandler                            - Undefined Weak Reference
    Spi0_IRQHandler                           - Undefined Weak Reference
    Spi1_IRQHandler                           - Undefined Weak Reference
    Tim0_IRQHandler                           - Undefined Weak Reference
    Tim1_IRQHandler                           - Undefined Weak Reference
    Tim2_IRQHandler                           - Undefined Weak Reference
    Tim3_IRQHandler                           - Undefined Weak Reference
    Tim4_IRQHandler                           - Undefined Weak Reference
    Tim5_IRQHandler                           - Undefined Weak Reference
    Tim6_IRQHandler                           - Undefined Weak Reference
    Uart0_IRQHandler                          - Undefined Weak Reference
    Uart1_IRQHandler                          - Undefined Weak Reference
    Vc0_IRQHandler                            - Undefined Weak Reference
    Vc1_IRQHandler                            - Undefined Weak Reference
    Wdt_IRQHandler                            - Undefined Weak Reference
    __cpp_initialize__aeabi_                  - Undefined Weak Reference
    __cxa_finalize                            - Undefined Weak Reference
    __decompress                              - Undefined Weak Reference
    _clock_init                               - Undefined Weak Reference
    _microlib_exit                            - Undefined Weak Reference
    __Vectors_End                            0x000000c0   Data           0  startup_hc32f030.o(RESET)
    __Vectors_Size                           0x000000c0   Number         0  startup_hc32f030.o ABSOLUTE
    __main                                   0x000000c1   Thumb Code     0  entry.o(.ARM.Collect$$$$00000000)
    _main_stk                                0x000000c1   Thumb Code     0  entry2.o(.ARM.Collect$$$$00000001)
    _main_scatterload                        0x000000c5   Thumb Code     0  entry5.o(.ARM.Collect$$$$00000004)
    __main_after_scatterload                 0x000000c9   Thumb Code     0  entry5.o(.ARM.Collect$$$$00000004)
    _main_clock                              0x000000c9   Thumb Code     0  entry7b.o(.ARM.Collect$$$$00000008)
    _main_cpp_init                           0x000000c9   Thumb Code     0  entry8b.o(.ARM.Collect$$$$0000000A)
    _main_init                               0x000000c9   Thumb Code     0  entry9a.o(.ARM.Collect$$$$0000000B)
    __rt_final_cpp                           0x000000d1   Thumb Code     0  entry10a.o(.ARM.Collect$$$$0000000D)
    __rt_final_exit                          0x000000d1   Thumb Code     0  entry11a.o(.ARM.Collect$$$$0000000F)
    Reset_Handler                            0x000000d5   Thumb Code    26  startup_hc32f030.o(.text)
    NMI_Handler                              0x000000ef   Thumb Code     2  startup_hc32f030.o(.text)
    SVC_Handler                              0x000000f3   Thumb Code     2  startup_hc32f030.o(.text)
    PendSV_Handler                           0x000000f5   Thumb Code     2  startup_hc32f030.o(.text)
    SysTick_Handler                          0x000000f7   Thumb Code     2  startup_hc32f030.o(.text)
    Dummy_Handler                            0x000000f9   Thumb Code     0  startup_hc32f030.o(.text)
    __aeabi_fadd                             0x00000111   Thumb Code   162  fadd.o(.text)
    __aeabi_fsub                             0x000001b3   Thumb Code     8  fadd.o(.text)
    __aeabi_frsub                            0x000001bb   Thumb Code     8  fadd.o(.text)
    __aeabi_fdiv                             0x000001c3   Thumb Code   124  fdiv.o(.text)
    __aeabi_ui2f                             0x0000023f   Thumb Code    14  ffltui.o(.text)
    __aeabi_f2iz                             0x0000024d   Thumb Code    50  ffixi.o(.text)
    __aeabi_uidiv                            0x0000027f   Thumb Code     0  uidiv_div0.o(.text)
    __aeabi_uidivmod                         0x0000027f   Thumb Code    62  uidiv_div0.o(.text)
    __I$use$fp                               0x000002bd   Thumb Code     0  iusefp.o(.text)
    _float_round                             0x000002bd   Thumb Code    16  fepilogue.o(.text)
    _float_epilogue                          0x000002cd   Thumb Code   114  fepilogue.o(.text)
    __scatterload                            0x00000341   Thumb Code    28  init.o(.text)
    __scatterload_rt2                        0x00000341   Thumb Code     0  init.o(.text)
    main                                     0x00000365   Thumb Code    14  system_hc32f030.o(.text.$Sub$$main)
    ADC_IRQHandler                           0x00000373   Thumb Code     8  interrupts_hc32f030.o(.text.ADC_IRQHandler)
    App_PortInit                             0x0000037d   Thumb Code   180  main.o(.text.App_PortInit)
    CLKTRIM_IRQHandler                       0x00000435   Thumb Code     8  interrupts_hc32f030.o(.text.CLKTRIM_IRQHandler)
    DMAC_IRQHandler                          0x0000043d   Thumb Code     8  interrupts_hc32f030.o(.text.DMAC_IRQHandler)
    EnableNvic                               0x00000445   Thumb Code   108  interrupts_hc32f030.o(.text.EnableNvic)
    FLASH_RAM_IRQHandler                     0x000004c5   Thumb Code    12  interrupts_hc32f030.o(.text.FLASH_RAM_IRQHandler)
    GetBit                                   0x000004d1   Thumb Code    10  ddl.o(.text.GetBit)
    Gpio_Init                                0x000004dd   Thumb Code   124  gpio.o(.text.Gpio_Init)
    Gpio_SetAfMode                           0x00000565   Thumb Code    12  gpio.o(.text.Gpio_SetAfMode)
    HardFault_Handler                        0x00000575   Thumb Code    16  interrupts_hc32f030.o(.text.HardFault_Handler)
    I2C0_IRQHandler                          0x00000585   Thumb Code     8  interrupts_hc32f030.o(.text.I2C0_IRQHandler)
    I2C1_IRQHandler                          0x0000058d   Thumb Code     8  interrupts_hc32f030.o(.text.I2C1_IRQHandler)
    LVD_IRQHandler                           0x00000595   Thumb Code     8  interrupts_hc32f030.o(.text.LVD_IRQHandler)
    PCA_IRQHandler                           0x0000059d   Thumb Code     8  interrupts_hc32f030.o(.text.PCA_IRQHandler)
    PORTA_IRQHandler                         0x000005a5   Thumb Code     8  interrupts_hc32f030.o(.text.PORTA_IRQHandler)
    PORTB_IRQHandler                         0x000005ad   Thumb Code     8  interrupts_hc32f030.o(.text.PORTB_IRQHandler)
    PORTC_IRQHandler                         0x000005b5   Thumb Code     8  interrupts_hc32f030.o(.text.PORTC_IRQHandler)
    PORTD_IRQHandler                         0x000005bd   Thumb Code     8  interrupts_hc32f030.o(.text.PORTD_IRQHandler)
    SPI0_IRQHandler                          0x000005c5   Thumb Code     8  interrupts_hc32f030.o(.text.SPI0_IRQHandler)
    SPI1_IRQHandler                          0x000005cd   Thumb Code     8  interrupts_hc32f030.o(.text.SPI1_IRQHandler)
    SetBit                                   0x000005d5   Thumb Code    22  ddl.o(.text.SetBit)
    Sysctrl_GetHClkFreq                      0x000005ed   Thumb Code   220  sysctrl.o(.text.Sysctrl_GetHClkFreq)
    Sysctrl_GetPClkFreq                      0x000006e5   Thumb Code    20  sysctrl.o(.text.Sysctrl_GetPClkFreq)
    Sysctrl_SetPeripheralGate                0x000006fd   Thumb Code    16  sysctrl.o(.text.Sysctrl_SetPeripheralGate)
    SystemCoreClockUpdate                    0x00000711   Thumb Code    12  system_hc32f030.o(.text.SystemCoreClockUpdate)
    SystemInit                               0x0000071d   Thumb Code    44  system_hc32f030.o(.text.SystemInit)
    TIM0_IRQHandler                          0x00000761   Thumb Code     8  interrupts_hc32f030.o(.text.TIM0_IRQHandler)
    TIM1_IRQHandler                          0x00000769   Thumb Code     8  interrupts_hc32f030.o(.text.TIM1_IRQHandler)
    TIM2_IRQHandler                          0x00000771   Thumb Code     8  interrupts_hc32f030.o(.text.TIM2_IRQHandler)
    TIM3_IRQHandler                          0x00000779   Thumb Code     8  interrupts_hc32f030.o(.text.TIM3_IRQHandler)
    TIM4_IRQHandler                          0x00000781   Thumb Code     8  interrupts_hc32f030.o(.text.TIM4_IRQHandler)
    TIM5_IRQHandler                          0x00000789   Thumb Code     8  interrupts_hc32f030.o(.text.TIM5_IRQHandler)
    TIM6_IRQHandler                          0x00000791   Thumb Code     8  interrupts_hc32f030.o(.text.TIM6_IRQHandler)
    UART0_IRQHandler                         0x00000799   Thumb Code     8  interrupts_hc32f030.o(.text.UART0_IRQHandler)
    UART1_IRQHandler                         0x000007a1   Thumb Code     8  interrupts_hc32f030.o(.text.UART1_IRQHandler)
    Uart_ClrStatus                           0x000007a9   Thumb Code    16  uart.o(.text.Uart_ClrStatus)
    Uart_EnableFunc                          0x000007b9   Thumb Code    14  uart.o(.text.Uart_EnableFunc)
    Uart_EnableIrq                           0x000007c7   Thumb Code    14  uart.o(.text.Uart_EnableIrq)
    Uart_Init                                0x000007d5   Thumb Code   104  uart.o(.text.Uart_Init)
    Uart_SendDataPoll                        0x00000845   Thumb Code    56  uart.o(.text.Uart_SendDataPoll)
    VC0_IRQHandler                           0x0000087d   Thumb Code     8  interrupts_hc32f030.o(.text.VC0_IRQHandler)
    VC1_IRQHandler                           0x00000885   Thumb Code     8  interrupts_hc32f030.o(.text.VC1_IRQHandler)
    WDT_IRQHandler                           0x0000088d   Thumb Code     8  interrupts_hc32f030.o(.text.WDT_IRQHandler)
    ddl_memclr                               0x00000895   Thumb Code    20  ddl.o(.text.ddl_memclr)
    delay1ms                                 0x000008a9   Thumb Code    64  ddl.o(.text.delay1ms)
    fputc                                    0x000008f5   Thumb Code    18  ddl.o(.text.fputc)
    $Super$$main                             0x00000909   Thumb Code    24  main.o(.text.main)
    __scatterload_copy                       0x00000929   Thumb Code    14  handlers.o(i.__scatterload_copy)
    __scatterload_null                       0x00000937   Thumb Code     2  handlers.o(i.__scatterload_null)
    __scatterload_zeroinit                   0x00000939   Thumb Code    14  handlers.o(i.__scatterload_zeroinit)
    puts                                     0x00000949   Thumb Code    28  puts.o(i.puts)
    Region$$Table$$Base                      0x00000968   Number         0  anon$$obj.o(Region$$Table)
    Region$$Table$$Limit                     0x00000988   Number         0  anon$$obj.o(Region$$Table)
    __stdout                                 0x20000000   Data           4  stdout.o(.data)
    SystemCoreClock                          0x20000004   Data           4  system_hc32f030.o(.data.SystemCoreClock)
    __initial_sp                             0x20000208   Data           0  startup_hc32f030.o(STACK)



==============================================================================

Memory Map of the image

  Image Entry point : 0x000000c1

  Load Region LR_IROM1 (Base: 0x00000000, Size: 0x00000990, Max: 0x00010000, ABSOLUTE)

    Execution Region ER_IROM1 (Exec base: 0x00000000, Load base: 0x00000000, Size: 0x00000988, Max: 0x00010000, ABSOLUTE)

    Exec Addr    Load Addr    Size         Type   Attr      Idx    E Section Name        Object

    0x00000000   0x00000000   0x000000c0   Data   RO            3    RESET               startup_hc32f030.o
    0x000000c0   0x000000c0   0x00000000   Code   RO          287  * .ARM.Collect$$$$00000000  mc_p.l(entry.o)
    0x000000c0   0x000000c0   0x00000004   Code   RO          306    .ARM.Collect$$$$00000001  mc_p.l(entry2.o)
    0x000000c4   0x000000c4   0x00000004   Code   RO          309    .ARM.Collect$$$$00000004  mc_p.l(entry5.o)
    0x000000c8   0x000000c8   0x00000000   Code   RO          311    .ARM.Collect$$$$00000008  mc_p.l(entry7b.o)
    0x000000c8   0x000000c8   0x00000000   Code   RO          313    .ARM.Collect$$$$0000000A  mc_p.l(entry8b.o)
    0x000000c8   0x000000c8   0x00000008   Code   RO          314    .ARM.Collect$$$$0000000B  mc_p.l(entry9a.o)
    0x000000d0   0x000000d0   0x00000000   Code   RO          316    .ARM.Collect$$$$0000000D  mc_p.l(entry10a.o)
    0x000000d0   0x000000d0   0x00000000   Code   RO          318    .ARM.Collect$$$$0000000F  mc_p.l(entry11a.o)
    0x000000d0   0x000000d0   0x00000004   Code   RO          307    .ARM.Collect$$$$00002712  mc_p.l(entry2.o)
    0x000000d4   0x000000d4   0x0000003c   Code   RO            4    .text               startup_hc32f030.o
    0x00000110   0x00000110   0x000000b2   Code   RO          298    .text               mf_p.l(fadd.o)
    0x000001c2   0x000001c2   0x0000007c   Code   RO          300    .text               mf_p.l(fdiv.o)
    0x0000023e   0x0000023e   0x0000000e   Code   RO          302    .text               mf_p.l(ffltui.o)
    0x0000024c   0x0000024c   0x00000032   Code   RO          304    .text               mf_p.l(ffixi.o)
    0x0000027e   0x0000027e   0x0000003e   Code   RO          323    .text               mc_p.l(uidiv_div0.o)
    0x000002bc   0x000002bc   0x00000000   Code   RO          329    .text               mc_p.l(iusefp.o)
    0x000002bc   0x000002bc   0x00000082   Code   RO          330    .text               mf_p.l(fepilogue.o)
    0x0000033e   0x0000033e   0x00000002   PAD
    0x00000340   0x00000340   0x00000024   Code   RO          332    .text               mc_p.l(init.o)
    0x00000364   0x00000364   0x0000000e   Code   RO           15    .text.$Sub$$main    system_hc32f030.o
    0x00000372   0x00000372   0x00000008   Code   RO           69    .text.ADC_IRQHandler  interrupts_hc32f030.o
    0x0000037a   0x0000037a   0x00000002   PAD
    0x0000037c   0x0000037c   0x000000b8   Code   RO           91    .text.App_PortInit  main.o
    0x00000434   0x00000434   0x00000008   Code   RO           79    .text.CLKTRIM_IRQHandler  interrupts_hc32f030.o
    0x0000043c   0x0000043c   0x00000008   Code   RO           37    .text.DMAC_IRQHandler  interrupts_hc32f030.o
    0x00000444   0x00000444   0x00000080   Code   RO           25    .text.EnableNvic    interrupts_hc32f030.o
    0x000004c4   0x000004c4   0x0000000c   Code   RO           77    .text.FLASH_RAM_IRQHandler  interrupts_hc32f030.o
    0x000004d0   0x000004d0   0x0000000a   Code   RO          126    .text.GetBit        ddl.o
    0x000004da   0x000004da   0x00000002   PAD
    0x000004dc   0x000004dc   0x00000088   Code   RO          228    .text.Gpio_Init     gpio.o
    0x00000564   0x00000564   0x00000010   Code   RO          250    .text.Gpio_SetAfMode  gpio.o
    0x00000574   0x00000574   0x00000010   Code   RO           27    .text.HardFault_Handler  interrupts_hc32f030.o
    0x00000584   0x00000584   0x00000008   Code   RO           49    .text.I2C0_IRQHandler  interrupts_hc32f030.o
    0x0000058c   0x0000058c   0x00000008   Code   RO           51    .text.I2C1_IRQHandler  interrupts_hc32f030.o
    0x00000594   0x00000594   0x00000008   Code   RO           75    .text.LVD_IRQHandler  interrupts_hc32f030.o
    0x0000059c   0x0000059c   0x00000008   Code   RO           65    .text.PCA_IRQHandler  interrupts_hc32f030.o
    0x000005a4   0x000005a4   0x00000008   Code   RO           29    .text.PORTA_IRQHandler  interrupts_hc32f030.o
    0x000005ac   0x000005ac   0x00000008   Code   RO           31    .text.PORTB_IRQHandler  interrupts_hc32f030.o
    0x000005b4   0x000005b4   0x00000008   Code   RO           33    .text.PORTC_IRQHandler  interrupts_hc32f030.o
    0x000005bc   0x000005bc   0x00000008   Code   RO           35    .text.PORTD_IRQHandler  interrupts_hc32f030.o
    0x000005c4   0x000005c4   0x00000008   Code   RO           45    .text.SPI0_IRQHandler  interrupts_hc32f030.o
    0x000005cc   0x000005cc   0x00000008   Code   RO           47    .text.SPI1_IRQHandler  interrupts_hc32f030.o
    0x000005d4   0x000005d4   0x00000016   Code   RO          124    .text.SetBit        ddl.o
    0x000005ea   0x000005ea   0x00000002   PAD
    0x000005ec   0x000005ec   0x000000f8   Code   RO          152    .text.Sysctrl_GetHClkFreq  sysctrl.o
    0x000006e4   0x000006e4   0x00000018   Code   RO          154    .text.Sysctrl_GetPClkFreq  sysctrl.o
    0x000006fc   0x000006fc   0x00000014   Code   RO          172    .text.Sysctrl_SetPeripheralGate  sysctrl.o
    0x00000710   0x00000710   0x0000000c   Code   RO           11    .text.SystemCoreClockUpdate  system_hc32f030.o
    0x0000071c   0x0000071c   0x00000044   Code   RO           13    .text.SystemInit    system_hc32f030.o
    0x00000760   0x00000760   0x00000008   Code   RO           53    .text.TIM0_IRQHandler  interrupts_hc32f030.o
    0x00000768   0x00000768   0x00000008   Code   RO           55    .text.TIM1_IRQHandler  interrupts_hc32f030.o
    0x00000770   0x00000770   0x00000008   Code   RO           57    .text.TIM2_IRQHandler  interrupts_hc32f030.o
    0x00000778   0x00000778   0x00000008   Code   RO           39    .text.TIM3_IRQHandler  interrupts_hc32f030.o
    0x00000780   0x00000780   0x00000008   Code   RO           59    .text.TIM4_IRQHandler  interrupts_hc32f030.o
    0x00000788   0x00000788   0x00000008   Code   RO           61    .text.TIM5_IRQHandler  interrupts_hc32f030.o
    0x00000790   0x00000790   0x00000008   Code   RO           63    .text.TIM6_IRQHandler  interrupts_hc32f030.o
    0x00000798   0x00000798   0x00000008   Code   RO           41    .text.UART0_IRQHandler  interrupts_hc32f030.o
    0x000007a0   0x000007a0   0x00000008   Code   RO           43    .text.UART1_IRQHandler  interrupts_hc32f030.o
    0x000007a8   0x000007a8   0x00000010   Code   RO          208    .text.Uart_ClrStatus  uart.o
    0x000007b8   0x000007b8   0x0000000e   Code   RO          198    .text.Uart_EnableFunc  uart.o
    0x000007c6   0x000007c6   0x0000000e   Code   RO          186    .text.Uart_EnableIrq  uart.o
    0x000007d4   0x000007d4   0x00000070   Code   RO          218    .text.Uart_Init     uart.o
    0x00000844   0x00000844   0x00000038   Code   RO          210    .text.Uart_SendDataPoll  uart.o
    0x0000087c   0x0000087c   0x00000008   Code   RO           71    .text.VC0_IRQHandler  interrupts_hc32f030.o
    0x00000884   0x00000884   0x00000008   Code   RO           73    .text.VC1_IRQHandler  interrupts_hc32f030.o
    0x0000088c   0x0000088c   0x00000008   Code   RO           67    .text.WDT_IRQHandler  interrupts_hc32f030.o
    0x00000894   0x00000894   0x00000014   Code   RO          104    .text.ddl_memclr    ddl.o
    0x000008a8   0x000008a8   0x0000004c   Code   RO          118    .text.delay1ms      ddl.o
    0x000008f4   0x000008f4   0x00000012   Code   RO          112    .text.fputc         ddl.o
    0x00000906   0x00000906   0x00000002   PAD
    0x00000908   0x00000908   0x00000020   Code   RO           89    .text.main          main.o
    0x00000928   0x00000928   0x0000000e   Code   RO          336    i.__scatterload_copy  mc_p.l(handlers.o)
    0x00000936   0x00000936   0x00000002   Code   RO          337    i.__scatterload_null  mc_p.l(handlers.o)
    0x00000938   0x00000938   0x0000000e   Code   RO          338    i.__scatterload_zeroinit  mc_p.l(handlers.o)
    0x00000946   0x00000946   0x00000002   PAD
    0x00000948   0x00000948   0x00000020   Code   RO          290    i.puts              mc_p.l(puts.o)
    0x00000968   0x00000968   0x00000020   Data   RO          335    Region$$Table       anon$$obj.o


    Execution Region RW_IRAM1 (Exec base: 0x20000000, Load base: 0x00000988, Size: 0x00000208, Max: 0x00002000, ABSOLUTE)

    Exec Addr    Load Addr    Size         Type   Attr      Idx    E Section Name        Object

    0x20000000   0x00000988   0x00000004   Data   RW          320    .data               mc_p.l(stdout.o)
    0x20000004   0x0000098c   0x00000004   Data   RW           17    .data.SystemCoreClock  system_hc32f030.o
    0x20000008        -       0x00000200   Zero   RW            1    STACK               startup_hc32f030.o


==============================================================================

Image component sizes


      Code (inc. data)   RO Data    RW Data    ZI Data      Debug   Object Name

       146         12          0          0          0       5724   ddl.o
       152         16          0          0          0      44753   gpio.o
       356         20          0          0          0       5580   interrupts_hc32f030.o
       216         12          0          0          0       6803   main.o
        60         22        192          0        512        600   startup_hc32f030.o
       292         42          0          0          0      49076   sysctrl.o
        94         24          0          4          0       3935   system_hc32f030.o
       212          8          0          0          0       8834   uart.o

    ----------------------------------------------------------------------
      1536        156        224          4        512     125305   Object Totals
         0          0         32          0          0          0   (incl. Generated)
         8          0          0          0          0          0   (incl. Padding)

    ----------------------------------------------------------------------

      Code (inc. data)   RO Data    RW Data    ZI Data      Debug   Library Member Name

         0          0          0          0          0          0   entry.o
         0          0          0          0          0          0   entry10a.o
         0          0          0          0          0          0   entry11a.o
         8          4          0          0          0          0   entry2.o
         4          0          0          0          0          0   entry5.o
         0          0          0          0          0          0   entry7b.o
         0          0          0          0          0          0   entry8b.o
         8          4          0          0          0          0   entry9a.o
        30          0          0          0          0          0   handlers.o
        36          8          0          0          0         68   init.o
         0          0          0          0          0          0   iusefp.o
        32          4          0          0          0         68   puts.o
         0          0          0          4          0          0   stdout.o
        62          0          0          0          0         72   uidiv_div0.o
       178          0          0          0          0        108   fadd.o
       124          0          0          0          0         72   fdiv.o
       130          0          0          0          0        144   fepilogue.o
        50          0          0          0          0         60   ffixi.o
        14          0          0          0          0         68   ffltui.o

    ----------------------------------------------------------------------
       680         20          0          4          0        660   Library Totals
         4          0          0          0          0          0   (incl. Padding)

    ----------------------------------------------------------------------

      Code (inc. data)   RO Data    RW Data    ZI Data      Debug   Library Name

       180         20          0          4          0        208   mc_p.l
       496          0          0          0          0        452   mf_p.l

    ----------------------------------------------------------------------
       680         20          0          4          0        660   Library Totals

    ----------------------------------------------------------------------

==============================================================================


      Code (inc. data)   RO Data    RW Data    ZI Data      Debug   

      2216        176        224          8        512     125777   Grand Totals
      2216        176        224          8        512     125777   ELF Image Totals
      2216        176        224          8          0          0   ROM Totals

==============================================================================

    Total RO  Size (Code + RO Data)                 2440 (   2.38kB)
    Total RW  Size (RW Data + ZI Data)               520 (   0.51kB)
    Total ROM Size (Code + RO Data + RW Data)       2448 (   2.39kB)

==============================================================================

