:020000040000FA
:1000000010020020D5000000EF000000790500007C
:1000100000000000000000000000000000000000E0
:10002000000000000000000000000000F3000000DD
:100030000000000000000000F5000000F7000000D4
:10004000A9050000B1050000B9050000C1050000C8
:10005000410400007D0700009D070000A507000087
:10006000F9000000F9000000C9050000D1050000FA
:100070008905000091050000650700006D0700007C
:1000800075070000F9000000850700008D070000DB
:1000900095070000A1050000F1080000F90000002C
:1000A00073030000F9000000E1080000E908000007
:1000B00099050000F9000000C9040000390400009F
:1000C0000348854600F03CF90048004765030000FE
:1000D0001002002009480A4A002100A1814200D9EB
:1000E0000244084802600848804708480047FEE785
:1000F000FEE7FEE7FEE7FEE7FEE700000000002067
:100100000000000008ED00E021070000C100000031
:10011000F8B502464A40D40F42004B0052085B0833
:100120009A4202D20246084611464A0023D0C30D25
:100130004A00DDB2120EAD1A202D35DA4902012631
:10014000490AF6058A19002C00D0524220214F1B83
:100150001146B9402A411018C20D9A4221D0002CF4
:1001600017D0012D08DCDA05801AD20F8019D207CA
:10017000DBB200F0ABF8F8BDDA05801A01234000CD
:100180001B06C01880185A428018CA0F1043490035
:1001900007E04908C2071143DA05801A80194008B0
:1001A000801800F08BF8F8BD61000122511A001B85
:1001B000F7E70122D2075140AAE70122D2075040B7
:1001C000A6E770B502464A40D50F40004A00ED0749
:1001D00040085208002814D0002A12D0C40DD30DB4
:1001E00041020120C0055202490A520AE41A0918C4
:1001F00012187D34914201D3641C00E04900002CA8
:1002000001DA002070BD0023914201D3891A034313
:10021000400849000028F7D100290AD0914202D1B4
:100220000121C90705E0914201D2012101E001212C
:10023000C943E005C018401900F040F870BD10B582
:1002400000229623114600F041F810BDC20F410074
:1002500040020123400ADB05D207090EC0187F299E
:1002600001DA00207047962903DC9623591AC8400A
:1002700001E096398840002AF4D04042704770B5BA
:100280000446002903D000202022012310E000288A
:1002900001D00020C043C046C0460DE02546D540F1
:1002A0008D4205D30D469540641B1D46954040196F
:1002B0001546521E002DF1DC214670BD002904DADE
:1002C000401C490001D140084000704770B4002430
:1002D000050C05D11024000402D1002921D01124DD
:1002E000050E01D100020834050F01D10001241DC3
:1002F000850F01D18000A41C002801DB4000641C94
:10030000002908D020252E1B0D46F540A14000D025
:1003100001212943084301061B1B000ADB1D02D5EE
:10032000002070BC7047DB05181880180029F8DA27
:10033000401C4900F5D170BC4008400070470000E7
:10034000064C0125064E05E0E36807CC2B430C3C28
:1003500098471034B442F7D3FFF7B6FE980900006F
:10036000B809000080B500F0DBF900F0F5FA0020D4
:1003700080BD80B5C046C04680BDF0B587B06C4634
:100380001C262046314600F0B7FA012530462946A2
:1003900000F0B6F90026019602273046394622467B
:1003A00000F09EF8304639462A4600F0DDF8019507
:1003B000032730463946224600F092F83046394647
:1003C0002A4600F0D1F807B0F0BD0000F0B587B0C4
:1003D00001AE1821304600F08FFA01242046214654
:1003E00000F08EF900250395C02001904B20C0013C
:1003F0000690042002906002049000F075F90590C8
:10040000F34F3846314600F029FA3846294600F0C5
:1004100009FA3846214600F005FA3846294600F028
:1004200010FA3846214600F00CFA07200321224634
:1004300000F00AF807B0F0BD80B5C046C04680BDE8
:1004400080B5C046C04680BDF0B5002818D41F2432
:1004500004400123A340184C23608407E40EFF25C9
:10046000A5400326B043154E8759AF438907090EAF
:10047000A14039438151012A14D112480360F0BDD3
:100480008207D20EFF2494400F230340083B032031
:10049000834308481D58A5438901C9B291402943A7
:1004A0001950F0BD06480360BFF34F8FBFF36F8F45
:1004B000F0BDC0461CED00E080E200E000E400E09A
:1004C00080E100E000E100E080B5C046C046C046E3
:1004D000C04680BD0268CA4001201040704700003D
:1004E000FEB515460E4601901C49471838460C309B
:1004F0000024314622460294194B9847B0000199D6
:1005000008181C494450384608302A783146144CA3
:10051000A0472A7938463146A04738461C302A7A07
:100520003146A047384620302A7B3146A04738461E
:1005300024302A7C3146A0472C372A7D3846314664
:10054000A047A8690121C903064A13688B43C00369
:1005500080B2181810600298FEBDC046000D02401F
:10056000D9050000080F0240890040180149425097
:1005700000207047000C024081B0002000900098DD
:100580000028FCD001B0704780B5C046C04680BD91
:1005900080B5C046C04680BD80B5C046C04680BD5F
:1005A00080B5C046C04680BD80B5C046C04680BD4F
:1005B00080B5C046C04680BD80B5C046C04680BD3F
:1005C00080B5C046C04680BD80B5C046C04680BD2F
:1005D00080B5C046C04680BD01238B40012A02D1B0
:1005E0000168194301E00168994301607047000008
:1005F000FCB536480688458881880191C488078CF7
:10060000544A11460C3908680006430F042B0FD8D2
:1006100000942F487B441B795B009F4402520B10CF
:10062000130013684D480340B34218D1294848E0ED
:10063000002046E09068464A0240BA4215D00120A8
:10064000C0033EE0136B03241C40032C074634D147
:10065000136842480340B3420AD11E4F2DE013688D
:100660000340AB420AD11C482BE04B20400228E05B
:1006700013680340AB4208D1174F1EE013680340D4
:10068000019CA34208D115481BE013680340019C5C
:10069000A34208D1114F10E0126802400098824234
:1006A00008D010480DE0136803400098834203D03F
:1006B0000C4F02E00A4804E0094F106BC005000F20
:1006C000784309684905490FC840FCBD000C10007B
:1006D0000048E80100366E01408651010024F40014
:1006E00000127A0000093D0080B5FFF781FF034941
:1006F0000968C904890FC84080BDC0460020004079
:1007000080B50A4601460248FFF766FF002080BD1B
:100710002020004080B5FFF76BFF8E49086080BD48
:1007200010B50A48418B0A4A0A400A498B680A4CAC
:100730001C40A2188A600088084A02400868084BDA
:10074000034098180860FFF7E5FF10BD080C100083
:10075000FF0300000C20004000FCFFFFFF0700002B
:1007600000F8FFFF80B5C046C04680BD80B5C046DA
:10077000C04680BD80B5C046C04680BD80B5C0467D
:10078000C04680BD80B5C046C04680BD80B5C0466D
:10079000C04680BD80B5C046C04680BD80B5C0465D
:1007A000C04680BD80B500F015F880BDB0B50446E8
:1007B0001A4D217800290AD0284600F08AF8012134
:1007C000284600F045F80028F9D1641CF1E7B0BDD7
:1007D0000001004010B5114C0021204600F038F80F
:1007E00000280BD00021204600F01CF8204600F025
:1007F0006DF80B4908704878401C4870012120466C
:1008000000F026F8002807D00121204600F00AF861
:1008100003488178491C817010BDC046000100402A
:100820000800002010B5143000242246FFF7D4FE43
:10083000204610BD80B5001D0122FFF7CDFE00202F
:1008400080BD80B5001D0122FFF7C6FE002080BDDF
:1008500080B51030FFF73EFE80BD0000F8B50029DE
:100860002CD00E4605460024446003C9B268F368E4
:100870000A431A4302436A60306880210143C02959
:100880001DD1F068400A80000EA10F5A3069FFF7B1
:10089000D6FC00907069B840FFF7D1FC0146009883
:1008A000FFF78FFC3F210906FFF732FCFFF7CEFC74
:1008B000A86104212846FFF7BDFF00E0042420467C
:1008C000F8BDC04604000000030000000068C0B28C
:1008D00070470268FF239A43511801600020704757
:1008E00080B5C046C04680BD80B5C046C04680BD0C
:1008F00080B5C046C04680BD002806D0002904D07F
:1009000000220270401C491EF8E77047F8B5044603
:100910000E4D0F4868600027AF60052028600D4E1F
:10092000002C0DD0641EAF607D20C1003068FFF741
:10093000A6FC0749081A401CA9688142FCD8EFE7C9
:100940002868012188432860F8BDC04610E000E017
:10095000FFFFFF0004000020FFF70FFDFFF736FD4B
:10096000044C2046FFF722FF7D20C000FFF7CEFF9A
:10097000F7E7C0460000002002E008C8121F08C1C7
:10098000002AFAD170477047002001E001C1121F10
:10099000002AFBD170470000B809000000000020C9
:1009A0000800000078090000C009000008000020CD
:1009B00008020000880900000102030000093D0050
:04000005000000C136
:00000001FF
