Component: ARM Compiler 6.16 Tool: armlink [5dfeaa00]

==============================================================================

Image Symbol Table

    Local Symbols

    Symbol Name                              Value     Ov Type        Size  Object(Section)

    ../clib/division.s                       0x00000000   Number         0  aeabi_sdiv.o ABSOLUTE
    ../clib/division.s                       0x00000000   Number         0  aeabi_sdiv_div0.o ABSOLUTE
    ../clib/microlib/division.c              0x00000000   Number         0  uidiv.o ABSOLUTE
    ../clib/microlib/division.c              0x00000000   Number         0  uidiv_div0.o ABSOLUTE
    ../clib/microlib/division.c              0x00000000   Number         0  idiv_div0.o ABSOLUTE
    ../clib/microlib/division.c              0x00000000   Number         0  idiv0.o ABSOLUTE
    ../clib/microlib/init/entry.s            0x00000000   Number         0  entry.o ABSOLUTE
    ../clib/microlib/init/entry.s            0x00000000   Number         0  entry2.o ABSOLUTE
    ../clib/microlib/init/entry.s            0x00000000   Number         0  entry5.o ABSOLUTE
    ../clib/microlib/init/entry.s            0x00000000   Number         0  entry7a.o ABSOLUTE
    ../clib/microlib/init/entry.s            0x00000000   Number         0  entry7b.o ABSOLUTE
    ../clib/microlib/init/entry.s            0x00000000   Number         0  entry8a.o ABSOLUTE
    ../clib/microlib/init/entry.s            0x00000000   Number         0  entry8b.o ABSOLUTE
    ../clib/microlib/init/entry.s            0x00000000   Number         0  entry9a.o ABSOLUTE
    ../clib/microlib/init/entry.s            0x00000000   Number         0  entry9b.o ABSOLUTE
    ../clib/microlib/init/entry.s            0x00000000   Number         0  entry10a.o ABSOLUTE
    ../clib/microlib/init/entry.s            0x00000000   Number         0  entry10b.o ABSOLUTE
    ../clib/microlib/init/entry.s            0x00000000   Number         0  entry11a.o ABSOLUTE
    ../clib/microlib/init/entry.s            0x00000000   Number         0  entry11b.o ABSOLUTE
    ../clib/microlib/stubs.s                 0x00000000   Number         0  iusefp.o ABSOLUTE
    ../fplib/microlib/fpadd.c                0x00000000   Number         0  fadd.o ABSOLUTE
    ../fplib/microlib/fpdiv.c                0x00000000   Number         0  fdiv.o ABSOLUTE
    ../fplib/microlib/fpepilogue.c           0x00000000   Number         0  fepilogue.o ABSOLUTE
    ../fplib/microlib/fpfix.c                0x00000000   Number         0  ffixi.o ABSOLUTE
    ../fplib/microlib/fpflt.c                0x00000000   Number         0  ffltui.o ABSOLUTE
    dc.s                                     0x00000000   Number         0  dc.o ABSOLUTE
    ddl.c                                    0x00000000   Number         0  ddl.o ABSOLUTE
    gpio.c                                   0x00000000   Number         0  gpio.o ABSOLUTE
    handlers.s                               0x00000000   Number         0  handlers.o ABSOLUTE
    init.s                                   0x00000000   Number         0  init.o ABSOLUTE
    interrupts_hc32f030.c                    0x00000000   Number         0  interrupts_hc32f030.o ABSOLUTE
    main.c                                   0x00000000   Number         0  main.o ABSOLUTE
    startup_hc32f030.s                       0x00000000   Number         0  startup_hc32f030.o ABSOLUTE
    sysctrl.c                                0x00000000   Number         0  sysctrl.o ABSOLUTE
    system_hc32f030.c                        0x00000000   Number         0  system_hc32f030.o ABSOLUTE
    uart.c                                   0x00000000   Number         0  uart.o ABSOLUTE
    RESET                                    0x00000000   Section      192  startup_hc32f030.o(RESET)
    .ARM.Collect$$$$00000000                 0x000000c0   Section        0  entry.o(.ARM.Collect$$$$00000000)
    .ARM.Collect$$$$00000001                 0x000000c0   Section        4  entry2.o(.ARM.Collect$$$$00000001)
    .ARM.Collect$$$$00000004                 0x000000c4   Section        4  entry5.o(.ARM.Collect$$$$00000004)
    .ARM.Collect$$$$00000008                 0x000000c8   Section        0  entry7b.o(.ARM.Collect$$$$00000008)
    .ARM.Collect$$$$0000000A                 0x000000c8   Section        0  entry8b.o(.ARM.Collect$$$$0000000A)
    .ARM.Collect$$$$0000000B                 0x000000c8   Section        8  entry9a.o(.ARM.Collect$$$$0000000B)
    __lit__00000000                          0x000000d0   Data           4  entry2.o(.ARM.Collect$$$$00002712)
    .ARM.Collect$$$$0000000D                 0x000000d0   Section        0  entry10a.o(.ARM.Collect$$$$0000000D)
    .ARM.Collect$$$$0000000F                 0x000000d0   Section        0  entry11a.o(.ARM.Collect$$$$0000000F)
    .ARM.Collect$$$$00002712                 0x000000d0   Section        4  entry2.o(.ARM.Collect$$$$00002712)
    .text                                    0x000000d4   Section       60  startup_hc32f030.o(.text)
    .text                                    0x00000110   Section        0  fadd.o(.text)
    .text                                    0x000001c2   Section        0  fdiv.o(.text)
    .text                                    0x0000023e   Section        0  ffltui.o(.text)
    .text                                    0x0000024c   Section        0  ffixi.o(.text)
    .text                                    0x0000027e   Section        0  uidiv_div0.o(.text)
    .text                                    0x000002bc   Section        0  iusefp.o(.text)
    .text                                    0x000002bc   Section        0  fepilogue.o(.text)
    .text                                    0x00000340   Section       36  init.o(.text)
    [Anonymous Symbol]                       0x00000364   Section        0  system_hc32f030.o(.text.$Sub$$main)
    [Anonymous Symbol]                       0x00000372   Section        0  interrupts_hc32f030.o(.text.ADC_IRQHandler)
    [Anonymous Symbol]                       0x0000037a   Section        0  main.o(.text.App_PortInit)
    [Anonymous Symbol]                       0x000003cc   Section        0  main.o(.text.App_UartCfg)
    [Anonymous Symbol]                       0x00000438   Section        0  interrupts_hc32f030.o(.text.CLKTRIM_IRQHandler)
    [Anonymous Symbol]                       0x00000440   Section        0  interrupts_hc32f030.o(.text.DMAC_IRQHandler)
    [Anonymous Symbol]                       0x00000448   Section        0  interrupts_hc32f030.o(.text.EnableNvic)
    __arm_cp.0_0                             0x000004b4   Number         4  interrupts_hc32f030.o(.text.EnableNvic)
    __arm_cp.0_1                             0x000004b8   Number         4  interrupts_hc32f030.o(.text.EnableNvic)
    __arm_cp.0_2                             0x000004bc   Number         4  interrupts_hc32f030.o(.text.EnableNvic)
    __arm_cp.0_3                             0x000004c0   Number         4  interrupts_hc32f030.o(.text.EnableNvic)
    __arm_cp.0_4                             0x000004c4   Number         4  interrupts_hc32f030.o(.text.EnableNvic)
    [Anonymous Symbol]                       0x000004c8   Section        0  interrupts_hc32f030.o(.text.FLASH_RAM_IRQHandler)
    [Anonymous Symbol]                       0x000004d4   Section        0  ddl.o(.text.GetBit)
    [Anonymous Symbol]                       0x000004e0   Section        0  gpio.o(.text.Gpio_Init)
    __arm_cp.0_0                             0x0000055c   Number         4  gpio.o(.text.Gpio_Init)
    __arm_cp.0_1                             0x00000560   Number         4  gpio.o(.text.Gpio_Init)
    __arm_cp.0_3                             0x00000564   Number         4  gpio.o(.text.Gpio_Init)
    [Anonymous Symbol]                       0x00000568   Section        0  gpio.o(.text.Gpio_SetAfMode)
    __arm_cp.11_0                            0x00000574   Number         4  gpio.o(.text.Gpio_SetAfMode)
    [Anonymous Symbol]                       0x00000578   Section        0  interrupts_hc32f030.o(.text.HardFault_Handler)
    [Anonymous Symbol]                       0x00000588   Section        0  interrupts_hc32f030.o(.text.I2C0_IRQHandler)
    [Anonymous Symbol]                       0x00000590   Section        0  interrupts_hc32f030.o(.text.I2C1_IRQHandler)
    [Anonymous Symbol]                       0x00000598   Section        0  interrupts_hc32f030.o(.text.LVD_IRQHandler)
    [Anonymous Symbol]                       0x000005a0   Section        0  interrupts_hc32f030.o(.text.PCA_IRQHandler)
    [Anonymous Symbol]                       0x000005a8   Section        0  interrupts_hc32f030.o(.text.PORTA_IRQHandler)
    [Anonymous Symbol]                       0x000005b0   Section        0  interrupts_hc32f030.o(.text.PORTB_IRQHandler)
    [Anonymous Symbol]                       0x000005b8   Section        0  interrupts_hc32f030.o(.text.PORTC_IRQHandler)
    [Anonymous Symbol]                       0x000005c0   Section        0  interrupts_hc32f030.o(.text.PORTD_IRQHandler)
    [Anonymous Symbol]                       0x000005c8   Section        0  interrupts_hc32f030.o(.text.SPI0_IRQHandler)
    [Anonymous Symbol]                       0x000005d0   Section        0  interrupts_hc32f030.o(.text.SPI1_IRQHandler)
    [Anonymous Symbol]                       0x000005d8   Section        0  ddl.o(.text.SetBit)
    [Anonymous Symbol]                       0x000005f0   Section        0  sysctrl.o(.text.Sysctrl_GetHClkFreq)
    __arm_cp.8_0                             0x000006cc   Number         4  sysctrl.o(.text.Sysctrl_GetHClkFreq)
    __arm_cp.8_2                             0x000006d0   Number         4  sysctrl.o(.text.Sysctrl_GetHClkFreq)
    __arm_cp.8_4                             0x000006d4   Number         4  sysctrl.o(.text.Sysctrl_GetHClkFreq)
    __arm_cp.8_5                             0x000006d8   Number         4  sysctrl.o(.text.Sysctrl_GetHClkFreq)
    __arm_cp.8_6                             0x000006dc   Number         4  sysctrl.o(.text.Sysctrl_GetHClkFreq)
    __arm_cp.8_7                             0x000006e0   Number         4  sysctrl.o(.text.Sysctrl_GetHClkFreq)
    __arm_cp.8_8                             0x000006e4   Number         4  sysctrl.o(.text.Sysctrl_GetHClkFreq)
    [Anonymous Symbol]                       0x000006e8   Section        0  sysctrl.o(.text.Sysctrl_GetPClkFreq)
    __arm_cp.9_0                             0x000006fc   Number         4  sysctrl.o(.text.Sysctrl_GetPClkFreq)
    [Anonymous Symbol]                       0x00000700   Section        0  sysctrl.o(.text.Sysctrl_SetPeripheralGate)
    __arm_cp.18_0                            0x00000710   Number         4  sysctrl.o(.text.Sysctrl_SetPeripheralGate)
    [Anonymous Symbol]                       0x00000714   Section        0  system_hc32f030.o(.text.SystemCoreClockUpdate)
    [Anonymous Symbol]                       0x00000720   Section        0  system_hc32f030.o(.text.SystemInit)
    __arm_cp.1_0                             0x0000074c   Number         4  system_hc32f030.o(.text.SystemInit)
    __arm_cp.1_1                             0x00000750   Number         4  system_hc32f030.o(.text.SystemInit)
    __arm_cp.1_2                             0x00000754   Number         4  system_hc32f030.o(.text.SystemInit)
    __arm_cp.1_3                             0x00000758   Number         4  system_hc32f030.o(.text.SystemInit)
    __arm_cp.1_4                             0x0000075c   Number         4  system_hc32f030.o(.text.SystemInit)
    __arm_cp.1_5                             0x00000760   Number         4  system_hc32f030.o(.text.SystemInit)
    [Anonymous Symbol]                       0x00000764   Section        0  interrupts_hc32f030.o(.text.TIM0_IRQHandler)
    [Anonymous Symbol]                       0x0000076c   Section        0  interrupts_hc32f030.o(.text.TIM1_IRQHandler)
    [Anonymous Symbol]                       0x00000774   Section        0  interrupts_hc32f030.o(.text.TIM2_IRQHandler)
    [Anonymous Symbol]                       0x0000077c   Section        0  interrupts_hc32f030.o(.text.TIM3_IRQHandler)
    [Anonymous Symbol]                       0x00000784   Section        0  interrupts_hc32f030.o(.text.TIM4_IRQHandler)
    [Anonymous Symbol]                       0x0000078c   Section        0  interrupts_hc32f030.o(.text.TIM5_IRQHandler)
    [Anonymous Symbol]                       0x00000794   Section        0  interrupts_hc32f030.o(.text.TIM6_IRQHandler)
    [Anonymous Symbol]                       0x0000079c   Section        0  interrupts_hc32f030.o(.text.UART0_IRQHandler)
    [Anonymous Symbol]                       0x000007a4   Section        0  interrupts_hc32f030.o(.text.UART1_IRQHandler)
    [Anonymous Symbol]                       0x000007ac   Section        0  main.o(.text.UART_Send_Message)
    __arm_cp.3_0                             0x000007d0   Number         4  main.o(.text.UART_Send_Message)
    [Anonymous Symbol]                       0x000007d4   Section        0  main.o(.text.Uart1_IRQHandler)
    __arm_cp.4_0                             0x0000081c   Number         4  main.o(.text.Uart1_IRQHandler)
    __arm_cp.4_1                             0x00000820   Number         4  main.o(.text.Uart1_IRQHandler)
    [Anonymous Symbol]                       0x00000824   Section        0  uart.o(.text.Uart_ClrStatus)
    [Anonymous Symbol]                       0x00000834   Section        0  uart.o(.text.Uart_EnableFunc)
    [Anonymous Symbol]                       0x00000842   Section        0  uart.o(.text.Uart_EnableIrq)
    [Anonymous Symbol]                       0x00000850   Section        0  uart.o(.text.Uart_GetStatus)
    [Anonymous Symbol]                       0x0000085c   Section        0  uart.o(.text.Uart_Init)
    [Anonymous Symbol]                       0x000008cc   Section        0  uart.o(.text.Uart_ReceiveData)
    [Anonymous Symbol]                       0x000008d2   Section        0  uart.o(.text.Uart_SendDataIt)
    [Anonymous Symbol]                       0x000008e0   Section        0  interrupts_hc32f030.o(.text.VC0_IRQHandler)
    [Anonymous Symbol]                       0x000008e8   Section        0  interrupts_hc32f030.o(.text.VC1_IRQHandler)
    [Anonymous Symbol]                       0x000008f0   Section        0  interrupts_hc32f030.o(.text.WDT_IRQHandler)
    [Anonymous Symbol]                       0x000008f8   Section        0  ddl.o(.text.ddl_memclr)
    [Anonymous Symbol]                       0x0000090c   Section        0  ddl.o(.text.delay1ms)
    __arm_cp.8_0                             0x0000094c   Number         4  ddl.o(.text.delay1ms)
    __arm_cp.8_1                             0x00000950   Number         4  ddl.o(.text.delay1ms)
    __arm_cp.8_2                             0x00000954   Number         4  ddl.o(.text.delay1ms)
    [Anonymous Symbol]                       0x00000958   Section        0  main.o(.text.main)
    __arm_cp.0_0                             0x00000974   Number         4  main.o(.text.main)
    i.__scatterload_copy                     0x00000978   Section       14  handlers.o(i.__scatterload_copy)
    i.__scatterload_null                     0x00000986   Section        2  handlers.o(i.__scatterload_null)
    i.__scatterload_zeroinit                 0x00000988   Section       14  handlers.o(i.__scatterload_zeroinit)
    [Anonymous Symbol]                       0x20000008   Section        0  main.o(.bss..L_MergedGlobals)
    u8RxCnt                                  0x20000009   Data           1  main.o(.bss..L_MergedGlobals)
    u8TxCnt                                  0x2000000a   Data           1  main.o(.bss..L_MergedGlobals)
    STACK                                    0x20000010   Section      512  startup_hc32f030.o(STACK)

    Global Symbols

    Symbol Name                              Value     Ov Type        Size  Object(Section)

    BuildAttributes$$THM_ISAv3M$S$PE$A:L22$X:L11$S22$IEEE1$IW$~IW$USESV6$~STKCKD$USESV7$WCHAR32$ENUMINT$~SHL$OTIME$ROPI$EBA8$MICROLIB$REQ8$PRES8$EABIv2 0x00000000   Number         0  anon$$obj.o ABSOLUTE
    __Vectors                                0x00000000   Data           0  startup_hc32f030.o(RESET)
    Adc_IRQHandler                            - Undefined Weak Reference
    ClkTrim_IRQHandler                        - Undefined Weak Reference
    Dmac_IRQHandler                           - Undefined Weak Reference
    Flash_IRQHandler                          - Undefined Weak Reference
    I2c0_IRQHandler                           - Undefined Weak Reference
    I2c1_IRQHandler                           - Undefined Weak Reference
    Lvd_IRQHandler                            - Undefined Weak Reference
    Pca_IRQHandler                            - Undefined Weak Reference
    PortA_IRQHandler                          - Undefined Weak Reference
    PortB_IRQHandler                          - Undefined Weak Reference
    PortC_IRQHandler                          - Undefined Weak Reference
    PortD_IRQHandler                          - Undefined Weak Reference
    Ram_IRQHandler                            - Undefined Weak Reference
    Spi0_IRQHandler                           - Undefined Weak Reference
    Spi1_IRQHandler                           - Undefined Weak Reference
    Tim0_IRQHandler                           - Undefined Weak Reference
    Tim1_IRQHandler                           - Undefined Weak Reference
    Tim2_IRQHandler                           - Undefined Weak Reference
    Tim3_IRQHandler                           - Undefined Weak Reference
    Tim4_IRQHandler                           - Undefined Weak Reference
    Tim5_IRQHandler                           - Undefined Weak Reference
    Tim6_IRQHandler                           - Undefined Weak Reference
    Uart0_IRQHandler                          - Undefined Weak Reference
    Vc0_IRQHandler                            - Undefined Weak Reference
    Vc1_IRQHandler                            - Undefined Weak Reference
    Wdt_IRQHandler                            - Undefined Weak Reference
    __cpp_initialize__aeabi_                  - Undefined Weak Reference
    __cxa_finalize                            - Undefined Weak Reference
    __decompress                              - Undefined Weak Reference
    _clock_init                               - Undefined Weak Reference
    _microlib_exit                            - Undefined Weak Reference
    __Vectors_End                            0x000000c0   Data           0  startup_hc32f030.o(RESET)
    __Vectors_Size                           0x000000c0   Number         0  startup_hc32f030.o ABSOLUTE
    __main                                   0x000000c1   Thumb Code     0  entry.o(.ARM.Collect$$$$00000000)
    _main_stk                                0x000000c1   Thumb Code     0  entry2.o(.ARM.Collect$$$$00000001)
    _main_scatterload                        0x000000c5   Thumb Code     0  entry5.o(.ARM.Collect$$$$00000004)
    __main_after_scatterload                 0x000000c9   Thumb Code     0  entry5.o(.ARM.Collect$$$$00000004)
    _main_clock                              0x000000c9   Thumb Code     0  entry7b.o(.ARM.Collect$$$$00000008)
    _main_cpp_init                           0x000000c9   Thumb Code     0  entry8b.o(.ARM.Collect$$$$0000000A)
    _main_init                               0x000000c9   Thumb Code     0  entry9a.o(.ARM.Collect$$$$0000000B)
    __rt_final_cpp                           0x000000d1   Thumb Code     0  entry10a.o(.ARM.Collect$$$$0000000D)
    __rt_final_exit                          0x000000d1   Thumb Code     0  entry11a.o(.ARM.Collect$$$$0000000F)
    Reset_Handler                            0x000000d5   Thumb Code    26  startup_hc32f030.o(.text)
    NMI_Handler                              0x000000ef   Thumb Code     2  startup_hc32f030.o(.text)
    SVC_Handler                              0x000000f3   Thumb Code     2  startup_hc32f030.o(.text)
    PendSV_Handler                           0x000000f5   Thumb Code     2  startup_hc32f030.o(.text)
    SysTick_Handler                          0x000000f7   Thumb Code     2  startup_hc32f030.o(.text)
    Dummy_Handler                            0x000000f9   Thumb Code     0  startup_hc32f030.o(.text)
    __aeabi_fadd                             0x00000111   Thumb Code   162  fadd.o(.text)
    __aeabi_fsub                             0x000001b3   Thumb Code     8  fadd.o(.text)
    __aeabi_frsub                            0x000001bb   Thumb Code     8  fadd.o(.text)
    __aeabi_fdiv                             0x000001c3   Thumb Code   124  fdiv.o(.text)
    __aeabi_ui2f                             0x0000023f   Thumb Code    14  ffltui.o(.text)
    __aeabi_f2iz                             0x0000024d   Thumb Code    50  ffixi.o(.text)
    __aeabi_uidiv                            0x0000027f   Thumb Code     0  uidiv_div0.o(.text)
    __aeabi_uidivmod                         0x0000027f   Thumb Code    62  uidiv_div0.o(.text)
    __I$use$fp                               0x000002bd   Thumb Code     0  iusefp.o(.text)
    _float_round                             0x000002bd   Thumb Code    16  fepilogue.o(.text)
    _float_epilogue                          0x000002cd   Thumb Code   114  fepilogue.o(.text)
    __scatterload                            0x00000341   Thumb Code    28  init.o(.text)
    __scatterload_rt2                        0x00000341   Thumb Code     0  init.o(.text)
    main                                     0x00000365   Thumb Code    14  system_hc32f030.o(.text.$Sub$$main)
    ADC_IRQHandler                           0x00000373   Thumb Code     8  interrupts_hc32f030.o(.text.ADC_IRQHandler)
    App_PortInit                             0x0000037b   Thumb Code    80  main.o(.text.App_PortInit)
    App_UartCfg                              0x000003cd   Thumb Code   108  main.o(.text.App_UartCfg)
    CLKTRIM_IRQHandler                       0x00000439   Thumb Code     8  interrupts_hc32f030.o(.text.CLKTRIM_IRQHandler)
    DMAC_IRQHandler                          0x00000441   Thumb Code     8  interrupts_hc32f030.o(.text.DMAC_IRQHandler)
    EnableNvic                               0x00000449   Thumb Code   108  interrupts_hc32f030.o(.text.EnableNvic)
    FLASH_RAM_IRQHandler                     0x000004c9   Thumb Code    12  interrupts_hc32f030.o(.text.FLASH_RAM_IRQHandler)
    GetBit                                   0x000004d5   Thumb Code    10  ddl.o(.text.GetBit)
    Gpio_Init                                0x000004e1   Thumb Code   124  gpio.o(.text.Gpio_Init)
    Gpio_SetAfMode                           0x00000569   Thumb Code    12  gpio.o(.text.Gpio_SetAfMode)
    HardFault_Handler                        0x00000579   Thumb Code    16  interrupts_hc32f030.o(.text.HardFault_Handler)
    I2C0_IRQHandler                          0x00000589   Thumb Code     8  interrupts_hc32f030.o(.text.I2C0_IRQHandler)
    I2C1_IRQHandler                          0x00000591   Thumb Code     8  interrupts_hc32f030.o(.text.I2C1_IRQHandler)
    LVD_IRQHandler                           0x00000599   Thumb Code     8  interrupts_hc32f030.o(.text.LVD_IRQHandler)
    PCA_IRQHandler                           0x000005a1   Thumb Code     8  interrupts_hc32f030.o(.text.PCA_IRQHandler)
    PORTA_IRQHandler                         0x000005a9   Thumb Code     8  interrupts_hc32f030.o(.text.PORTA_IRQHandler)
    PORTB_IRQHandler                         0x000005b1   Thumb Code     8  interrupts_hc32f030.o(.text.PORTB_IRQHandler)
    PORTC_IRQHandler                         0x000005b9   Thumb Code     8  interrupts_hc32f030.o(.text.PORTC_IRQHandler)
    PORTD_IRQHandler                         0x000005c1   Thumb Code     8  interrupts_hc32f030.o(.text.PORTD_IRQHandler)
    SPI0_IRQHandler                          0x000005c9   Thumb Code     8  interrupts_hc32f030.o(.text.SPI0_IRQHandler)
    SPI1_IRQHandler                          0x000005d1   Thumb Code     8  interrupts_hc32f030.o(.text.SPI1_IRQHandler)
    SetBit                                   0x000005d9   Thumb Code    22  ddl.o(.text.SetBit)
    Sysctrl_GetHClkFreq                      0x000005f1   Thumb Code   220  sysctrl.o(.text.Sysctrl_GetHClkFreq)
    Sysctrl_GetPClkFreq                      0x000006e9   Thumb Code    20  sysctrl.o(.text.Sysctrl_GetPClkFreq)
    Sysctrl_SetPeripheralGate                0x00000701   Thumb Code    16  sysctrl.o(.text.Sysctrl_SetPeripheralGate)
    SystemCoreClockUpdate                    0x00000715   Thumb Code    12  system_hc32f030.o(.text.SystemCoreClockUpdate)
    SystemInit                               0x00000721   Thumb Code    44  system_hc32f030.o(.text.SystemInit)
    TIM0_IRQHandler                          0x00000765   Thumb Code     8  interrupts_hc32f030.o(.text.TIM0_IRQHandler)
    TIM1_IRQHandler                          0x0000076d   Thumb Code     8  interrupts_hc32f030.o(.text.TIM1_IRQHandler)
    TIM2_IRQHandler                          0x00000775   Thumb Code     8  interrupts_hc32f030.o(.text.TIM2_IRQHandler)
    TIM3_IRQHandler                          0x0000077d   Thumb Code     8  interrupts_hc32f030.o(.text.TIM3_IRQHandler)
    TIM4_IRQHandler                          0x00000785   Thumb Code     8  interrupts_hc32f030.o(.text.TIM4_IRQHandler)
    TIM5_IRQHandler                          0x0000078d   Thumb Code     8  interrupts_hc32f030.o(.text.TIM5_IRQHandler)
    TIM6_IRQHandler                          0x00000795   Thumb Code     8  interrupts_hc32f030.o(.text.TIM6_IRQHandler)
    UART0_IRQHandler                         0x0000079d   Thumb Code     8  interrupts_hc32f030.o(.text.UART0_IRQHandler)
    UART1_IRQHandler                         0x000007a5   Thumb Code     8  interrupts_hc32f030.o(.text.UART1_IRQHandler)
    UART_Send_Message                        0x000007ad   Thumb Code    36  main.o(.text.UART_Send_Message)
    Uart1_IRQHandler                         0x000007d5   Thumb Code    72  main.o(.text.Uart1_IRQHandler)
    Uart_ClrStatus                           0x00000825   Thumb Code    16  uart.o(.text.Uart_ClrStatus)
    Uart_EnableFunc                          0x00000835   Thumb Code    14  uart.o(.text.Uart_EnableFunc)
    Uart_EnableIrq                           0x00000843   Thumb Code    14  uart.o(.text.Uart_EnableIrq)
    Uart_GetStatus                           0x00000851   Thumb Code    10  uart.o(.text.Uart_GetStatus)
    Uart_Init                                0x0000085d   Thumb Code   104  uart.o(.text.Uart_Init)
    Uart_ReceiveData                         0x000008cd   Thumb Code     6  uart.o(.text.Uart_ReceiveData)
    Uart_SendDataIt                          0x000008d3   Thumb Code    14  uart.o(.text.Uart_SendDataIt)
    VC0_IRQHandler                           0x000008e1   Thumb Code     8  interrupts_hc32f030.o(.text.VC0_IRQHandler)
    VC1_IRQHandler                           0x000008e9   Thumb Code     8  interrupts_hc32f030.o(.text.VC1_IRQHandler)
    WDT_IRQHandler                           0x000008f1   Thumb Code     8  interrupts_hc32f030.o(.text.WDT_IRQHandler)
    ddl_memclr                               0x000008f9   Thumb Code    20  ddl.o(.text.ddl_memclr)
    delay1ms                                 0x0000090d   Thumb Code    64  ddl.o(.text.delay1ms)
    $Super$$main                             0x00000959   Thumb Code    28  main.o(.text.main)
    __scatterload_copy                       0x00000979   Thumb Code    14  handlers.o(i.__scatterload_copy)
    __scatterload_null                       0x00000987   Thumb Code     2  handlers.o(i.__scatterload_null)
    __scatterload_zeroinit                   0x00000989   Thumb Code    14  handlers.o(i.__scatterload_zeroinit)
    Region$$Table$$Base                      0x00000998   Number         0  anon$$obj.o(Region$$Table)
    Region$$Table$$Limit                     0x000009b8   Number         0  anon$$obj.o(Region$$Table)
    RxData                                   0x20000000   Data           3  main.o(.data.RxData)
    SystemCoreClock                          0x20000004   Data           4  system_hc32f030.o(.data.SystemCoreClock)
    u8RxData                                 0x20000008   Data           1  main.o(.bss..L_MergedGlobals)
    __initial_sp                             0x20000210   Data           0  startup_hc32f030.o(STACK)



==============================================================================

Memory Map of the image

  Image Entry point : 0x000000c1

  Load Region LR_IROM1 (Base: 0x00000000, Size: 0x000009c0, Max: 0x00010000, ABSOLUTE)

    Execution Region ER_IROM1 (Exec base: 0x00000000, Load base: 0x00000000, Size: 0x000009b8, Max: 0x00010000, ABSOLUTE)

    Exec Addr    Load Addr    Size         Type   Attr      Idx    E Section Name        Object

    0x00000000   0x00000000   0x000000c0   Data   RO            3    RESET               startup_hc32f030.o
    0x000000c0   0x000000c0   0x00000000   Code   RO          295  * .ARM.Collect$$$$00000000  mc_p.l(entry.o)
    0x000000c0   0x000000c0   0x00000004   Code   RO          310    .ARM.Collect$$$$00000001  mc_p.l(entry2.o)
    0x000000c4   0x000000c4   0x00000004   Code   RO          313    .ARM.Collect$$$$00000004  mc_p.l(entry5.o)
    0x000000c8   0x000000c8   0x00000000   Code   RO          315    .ARM.Collect$$$$00000008  mc_p.l(entry7b.o)
    0x000000c8   0x000000c8   0x00000000   Code   RO          317    .ARM.Collect$$$$0000000A  mc_p.l(entry8b.o)
    0x000000c8   0x000000c8   0x00000008   Code   RO          318    .ARM.Collect$$$$0000000B  mc_p.l(entry9a.o)
    0x000000d0   0x000000d0   0x00000000   Code   RO          320    .ARM.Collect$$$$0000000D  mc_p.l(entry10a.o)
    0x000000d0   0x000000d0   0x00000000   Code   RO          322    .ARM.Collect$$$$0000000F  mc_p.l(entry11a.o)
    0x000000d0   0x000000d0   0x00000004   Code   RO          311    .ARM.Collect$$$$00002712  mc_p.l(entry2.o)
    0x000000d4   0x000000d4   0x0000003c   Code   RO            4    .text               startup_hc32f030.o
    0x00000110   0x00000110   0x000000b2   Code   RO          302    .text               mf_p.l(fadd.o)
    0x000001c2   0x000001c2   0x0000007c   Code   RO          304    .text               mf_p.l(fdiv.o)
    0x0000023e   0x0000023e   0x0000000e   Code   RO          306    .text               mf_p.l(ffltui.o)
    0x0000024c   0x0000024c   0x00000032   Code   RO          308    .text               mf_p.l(ffixi.o)
    0x0000027e   0x0000027e   0x0000003e   Code   RO          326    .text               mc_p.l(uidiv_div0.o)
    0x000002bc   0x000002bc   0x00000000   Code   RO          332    .text               mc_p.l(iusefp.o)
    0x000002bc   0x000002bc   0x00000082   Code   RO          333    .text               mf_p.l(fepilogue.o)
    0x0000033e   0x0000033e   0x00000002   PAD
    0x00000340   0x00000340   0x00000024   Code   RO          335    .text               mc_p.l(init.o)
    0x00000364   0x00000364   0x0000000e   Code   RO           15    .text.$Sub$$main    system_hc32f030.o
    0x00000372   0x00000372   0x00000008   Code   RO           69    .text.ADC_IRQHandler  interrupts_hc32f030.o
    0x0000037a   0x0000037a   0x00000050   Code   RO           91    .text.App_PortInit  main.o
    0x000003ca   0x000003ca   0x00000002   PAD
    0x000003cc   0x000003cc   0x0000006c   Code   RO           93    .text.App_UartCfg   main.o
    0x00000438   0x00000438   0x00000008   Code   RO           79    .text.CLKTRIM_IRQHandler  interrupts_hc32f030.o
    0x00000440   0x00000440   0x00000008   Code   RO           37    .text.DMAC_IRQHandler  interrupts_hc32f030.o
    0x00000448   0x00000448   0x00000080   Code   RO           25    .text.EnableNvic    interrupts_hc32f030.o
    0x000004c8   0x000004c8   0x0000000c   Code   RO           77    .text.FLASH_RAM_IRQHandler  interrupts_hc32f030.o
    0x000004d4   0x000004d4   0x0000000a   Code   RO          134    .text.GetBit        ddl.o
    0x000004de   0x000004de   0x00000002   PAD
    0x000004e0   0x000004e0   0x00000088   Code   RO          236    .text.Gpio_Init     gpio.o
    0x00000568   0x00000568   0x00000010   Code   RO          258    .text.Gpio_SetAfMode  gpio.o
    0x00000578   0x00000578   0x00000010   Code   RO           27    .text.HardFault_Handler  interrupts_hc32f030.o
    0x00000588   0x00000588   0x00000008   Code   RO           49    .text.I2C0_IRQHandler  interrupts_hc32f030.o
    0x00000590   0x00000590   0x00000008   Code   RO           51    .text.I2C1_IRQHandler  interrupts_hc32f030.o
    0x00000598   0x00000598   0x00000008   Code   RO           75    .text.LVD_IRQHandler  interrupts_hc32f030.o
    0x000005a0   0x000005a0   0x00000008   Code   RO           65    .text.PCA_IRQHandler  interrupts_hc32f030.o
    0x000005a8   0x000005a8   0x00000008   Code   RO           29    .text.PORTA_IRQHandler  interrupts_hc32f030.o
    0x000005b0   0x000005b0   0x00000008   Code   RO           31    .text.PORTB_IRQHandler  interrupts_hc32f030.o
    0x000005b8   0x000005b8   0x00000008   Code   RO           33    .text.PORTC_IRQHandler  interrupts_hc32f030.o
    0x000005c0   0x000005c0   0x00000008   Code   RO           35    .text.PORTD_IRQHandler  interrupts_hc32f030.o
    0x000005c8   0x000005c8   0x00000008   Code   RO           45    .text.SPI0_IRQHandler  interrupts_hc32f030.o
    0x000005d0   0x000005d0   0x00000008   Code   RO           47    .text.SPI1_IRQHandler  interrupts_hc32f030.o
    0x000005d8   0x000005d8   0x00000016   Code   RO          132    .text.SetBit        ddl.o
    0x000005ee   0x000005ee   0x00000002   PAD
    0x000005f0   0x000005f0   0x000000f8   Code   RO          160    .text.Sysctrl_GetHClkFreq  sysctrl.o
    0x000006e8   0x000006e8   0x00000018   Code   RO          162    .text.Sysctrl_GetPClkFreq  sysctrl.o
    0x00000700   0x00000700   0x00000014   Code   RO          180    .text.Sysctrl_SetPeripheralGate  sysctrl.o
    0x00000714   0x00000714   0x0000000c   Code   RO           11    .text.SystemCoreClockUpdate  system_hc32f030.o
    0x00000720   0x00000720   0x00000044   Code   RO           13    .text.SystemInit    system_hc32f030.o
    0x00000764   0x00000764   0x00000008   Code   RO           53    .text.TIM0_IRQHandler  interrupts_hc32f030.o
    0x0000076c   0x0000076c   0x00000008   Code   RO           55    .text.TIM1_IRQHandler  interrupts_hc32f030.o
    0x00000774   0x00000774   0x00000008   Code   RO           57    .text.TIM2_IRQHandler  interrupts_hc32f030.o
    0x0000077c   0x0000077c   0x00000008   Code   RO           39    .text.TIM3_IRQHandler  interrupts_hc32f030.o
    0x00000784   0x00000784   0x00000008   Code   RO           59    .text.TIM4_IRQHandler  interrupts_hc32f030.o
    0x0000078c   0x0000078c   0x00000008   Code   RO           61    .text.TIM5_IRQHandler  interrupts_hc32f030.o
    0x00000794   0x00000794   0x00000008   Code   RO           63    .text.TIM6_IRQHandler  interrupts_hc32f030.o
    0x0000079c   0x0000079c   0x00000008   Code   RO           41    .text.UART0_IRQHandler  interrupts_hc32f030.o
    0x000007a4   0x000007a4   0x00000008   Code   RO           43    .text.UART1_IRQHandler  interrupts_hc32f030.o
    0x000007ac   0x000007ac   0x00000028   Code   RO           95    .text.UART_Send_Message  main.o
    0x000007d4   0x000007d4   0x00000050   Code   RO           97    .text.Uart1_IRQHandler  main.o
    0x00000824   0x00000824   0x00000010   Code   RO          216    .text.Uart_ClrStatus  uart.o
    0x00000834   0x00000834   0x0000000e   Code   RO          206    .text.Uart_EnableFunc  uart.o
    0x00000842   0x00000842   0x0000000e   Code   RO          194    .text.Uart_EnableIrq  uart.o
    0x00000850   0x00000850   0x0000000a   Code   RO          212    .text.Uart_GetStatus  uart.o
    0x0000085a   0x0000085a   0x00000002   PAD
    0x0000085c   0x0000085c   0x00000070   Code   RO          226    .text.Uart_Init     uart.o
    0x000008cc   0x000008cc   0x00000006   Code   RO          224    .text.Uart_ReceiveData  uart.o
    0x000008d2   0x000008d2   0x0000000e   Code   RO          222    .text.Uart_SendDataIt  uart.o
    0x000008e0   0x000008e0   0x00000008   Code   RO           71    .text.VC0_IRQHandler  interrupts_hc32f030.o
    0x000008e8   0x000008e8   0x00000008   Code   RO           73    .text.VC1_IRQHandler  interrupts_hc32f030.o
    0x000008f0   0x000008f0   0x00000008   Code   RO           67    .text.WDT_IRQHandler  interrupts_hc32f030.o
    0x000008f8   0x000008f8   0x00000014   Code   RO          112    .text.ddl_memclr    ddl.o
    0x0000090c   0x0000090c   0x0000004c   Code   RO          126    .text.delay1ms      ddl.o
    0x00000958   0x00000958   0x00000020   Code   RO           89    .text.main          main.o
    0x00000978   0x00000978   0x0000000e   Code   RO          339    i.__scatterload_copy  mc_p.l(handlers.o)
    0x00000986   0x00000986   0x00000002   Code   RO          340    i.__scatterload_null  mc_p.l(handlers.o)
    0x00000988   0x00000988   0x0000000e   Code   RO          341    i.__scatterload_zeroinit  mc_p.l(handlers.o)
    0x00000996   0x00000996   0x00000002   PAD
    0x00000998   0x00000998   0x00000020   Data   RO          338    Region$$Table       anon$$obj.o


    Execution Region RW_IRAM1 (Exec base: 0x20000000, Load base: 0x000009b8, Size: 0x00000210, Max: 0x00002000, ABSOLUTE)

    Exec Addr    Load Addr    Size         Type   Attr      Idx    E Section Name        Object

    0x20000000   0x000009b8   0x00000003   Data   RW           99    .data.RxData        main.o
    0x20000003   0x000009bb   0x00000001   PAD
    0x20000004   0x000009bc   0x00000004   Data   RW           17    .data.SystemCoreClock  system_hc32f030.o
    0x20000008        -       0x00000003   Zero   RW          101    .bss..L_MergedGlobals  main.o
    0x2000000b   0x000009c0   0x00000005   PAD
    0x20000010        -       0x00000200   Zero   RW            1    STACK               startup_hc32f030.o


==============================================================================

Image component sizes


      Code (inc. data)   RO Data    RW Data    ZI Data      Debug   Object Name

       128         12          0          0          0       3535   ddl.o
       152         16          0          0          0      44752   gpio.o
       356         20          0          0          0       5579   interrupts_hc32f030.o
       340         16          0          3          3       7361   main.o
        60         22        192          0        512        600   startup_hc32f030.o
       292         42          0          0          0      49075   sysctrl.o
        94         24          0          4          0       3934   system_hc32f030.o
       186          8          0          0          0       8833   uart.o

    ----------------------------------------------------------------------
      1616        160        224          8        520     123669   Object Totals
         0          0         32          0          0          0   (incl. Generated)
         8          0          0          1          5          0   (incl. Padding)

    ----------------------------------------------------------------------

      Code (inc. data)   RO Data    RW Data    ZI Data      Debug   Library Member Name

         0          0          0          0          0          0   entry.o
         0          0          0          0          0          0   entry10a.o
         0          0          0          0          0          0   entry11a.o
         8          4          0          0          0          0   entry2.o
         4          0          0          0          0          0   entry5.o
         0          0          0          0          0          0   entry7b.o
         0          0          0          0          0          0   entry8b.o
         8          4          0          0          0          0   entry9a.o
        30          0          0          0          0          0   handlers.o
        36          8          0          0          0         68   init.o
         0          0          0          0          0          0   iusefp.o
        62          0          0          0          0         72   uidiv_div0.o
       178          0          0          0          0        108   fadd.o
       124          0          0          0          0         72   fdiv.o
       130          0          0          0          0        144   fepilogue.o
        50          0          0          0          0         60   ffixi.o
        14          0          0          0          0         68   ffltui.o

    ----------------------------------------------------------------------
       648         16          0          0          0        592   Library Totals
         4          0          0          0          0          0   (incl. Padding)

    ----------------------------------------------------------------------

      Code (inc. data)   RO Data    RW Data    ZI Data      Debug   Library Name

       148         16          0          0          0        140   mc_p.l
       496          0          0          0          0        452   mf_p.l

    ----------------------------------------------------------------------
       648         16          0          0          0        592   Library Totals

    ----------------------------------------------------------------------

==============================================================================


      Code (inc. data)   RO Data    RW Data    ZI Data      Debug   

      2264        176        224          8        520     124117   Grand Totals
      2264        176        224          8        520     124117   ELF Image Totals
      2264        176        224          8          0          0   ROM Totals

==============================================================================

    Total RO  Size (Code + RO Data)                 2488 (   2.43kB)
    Total RW  Size (RW Data + ZI Data)               528 (   0.52kB)
    Total ROM Size (Code + RO Data + RW Data)       2496 (   2.44kB)

==============================================================================

