:020000040000FA
:10000000381F0020510100006B0100006D0100004D
:1000100000000000000000000000000000000000E0
:100020000000000000000000000000006F01000060
:1000300000000000000000007301000073010000D8
:100040005103000059030000610300006903000030
:1000500049020000B9050000D9050000E1050000D3
:1000600075010000750100007103000079030000B4
:100070003103000039030000A1050000A9050000BC
:10008000B105000075010000C1050000C9050000B0
:10009000D105000049030000F905000075010000CA
:1000A0000F02000075010000E9050000F1050000E5
:1000B00041030000750100005102000041020000F0
:1000C0000448854600F08AF8004800470102000015
:1000D000C046C046381F0020084B19680868203009
:1000E00080F30988022080F31488BFF36F8F3FBC30
:1000F000AE4608BC04BC62B6184700000C000020E5
:10010000EFF3108072B6704780F310887047EFF3FA
:1001100009800E4B1A6820381060F0C044464D46E6
:1001200056465F46F0C008B572B600F0F9FF62B6F9
:100130000CBC116808681030F0C8A046A946B24649
:10014000BB4680F309882038F0C818470C0000200F
:1001500009480A4A002100A1814200D90244084806
:1001600002600848804708480047FEE7FEE7FEE7D0
:10017000FEE7FEE7FEE700000000002000000000B0
:1001800008ED00E061050000C100000030B50B463D
:10019000014600202022012409E00D46D5409D4261
:1001A00005D31D469540491B2546954040191546E7
:1001B000521E002DF1DC30BD03460B439B0703D0DC
:1001C00009E008C9121F08C0042AFAD203E00B781C
:1001D0000370401C491C521EF9D27047064C012581
:1001E000064E05E0E36807CC2B430C3C98471034DF
:1001F000B442F7D3FFF768FF5015000070150000F8
:1002000010B500F0ADF900F0ADFA002010BD10B54A
:10021000C046C04610BD1CB501211C2000F08CF961
:10022000002168464170C170012101716A460F21A9
:10023000002000F021F80F21002000F00FF81CBD75
:1002400010B5C046C04610BD10B5C046C04610BD72
:1002500010B5C046C046C046C04610BD70B5044685
:100260000D46044960180122294600F08AF8002052
:1002700070BD0000140D024070B504460E461546D0
:10028000214960180022314600F07BF800201F4908
:100290006118B20088502A781B49091F601831463E
:1002A00000F06FF86A7818490C396018314600F090
:1002B00068F8AA78144910316018314600F061F8E6
:1002C000EA78114914316018314600F05AF82A7959
:1002D0000D4918316018314600F053F86A790A491F
:1002E00020316018314600F04CF80948806801213F
:1002F000C9038843A979C9030122D20311400843E5
:1003000003498860002070BD0C0D0240000C0240C3
:10031000000F024070B504460D46044960180122E2
:10032000294600F02EF8002070BD0000100D02409C
:1003300010B5C046C04610BD10B5C046C04610BD81
:1003400010B5C046C04610BD10B5C046C04610BD71
:1003500010B5C046C04610BD10B5C046C04610BD61
:1003600010B5C046C04610BD10B5C046C04610BD51
:1003700010B5C046C04610BD10B5C046C04610BD41
:10038000704710B5012A05D1036801248C4023432E
:10039000036004E0036801248C40A343036010BDA4
:1003A00010B5FFF7ADFE044600F044FF002803D06F
:1003B00001200007024948602046FFF7A5FE10BD56
:1003C00000ED00E030B589B000241422564904A89D
:1003D000FFF7F2FE544814300068039000200090AC
:1003E0000190029051480188684601814F48418838
:1003F0006846C1804D488188684681804B48C188E5
:100400006846418049482030018868460180484854
:1004100000680006450F2B0000F04AF905042E3055
:100420003E4178004248C0684005400D6946098950
:10043000884201D1089C1EE03D48C0684005400D3F
:100440006946C988884201D1079C14E03848C068D1
:100450004005400D69468988884201D1069C0AE022
:100460003348C0684005400D69464988884201D13B
:10047000059C00E0049C4BE02E4C49E06846008857
:100480002B4949698905890D884202D16846C4898A
:1004900001E0684684893BE00124E40338E0244815
:1004A000C06B8007800F032829D168460089204946
:1004B000C9684905490D884201D1089C20E0684679
:1004C000C0881B49C9684905490D884201D1079C6C
:1004D00016E0684680881649C9684905490D884272
:1004E00001D1069C0CE0684640881149C96849055D
:1004F000490D884201D1059C02E0049C00E00D4CAE
:100500000B48C06BC005000F444301E0002400BF4E
:1005100000BF074800684005410F2046C840044618
:10052000204609B030BD000038150000000C100056
:10053000002000400048E80170B504460D462A46F8
:1005400021460248FFF71DFF002070BD202000401B
:1005500010B5FFF737FF0149086010BD000000200B
:1005600010B50D4949888805800D0C494969890AEB
:1005700089020143094A516107492039098948051F
:10058000400D1146C968C90AC9020143D160FFF78D
:10059000DFFF00F035F810BD200C100000200040F7
:1005A00010B5C046C04610BD10B5C046C04610BD0F
:1005B00010B5C046C04610BD10B5C046C04610BDFF
:1005C00010B5C046C04610BD10B5C046C04610BDEF
:1005D00010B5C046C04610BD10B5C046C04610BDDF
:1005E00010B5C046C04610BD10B5C046C04610BDCF
:1005F00010B5C046C04610BD10B5C046C04610BDBF
:100600002849086A096A0122120791438918254A74
:1006100011622549C968FB221140234AD160224951
:100620004031C9680021204A4032D1601E498031E2
:10063000C9681E4A11401C4A8032D1601A490968B3
:100640001A4AD21F1143184A1160174940310968EC
:10065000164AF4321143144A403211601249803173
:100660000968F4221143104A803211600E49096A68
:100670000E4AD21F11430C4A11620B494031096ADC
:100680000A4AF4321143084A403211620649803165
:10069000096AF4221143044A803211620149086256
:1006A0007047000000200040400D02400BFF00009A
:1006B00030B47446641E2578641CAB4204D3635D79
:1006C0005B00E31830BC18471D46F8E710B500285A
:1006D00019DB1A4A03231B02D21883089B00D25845
:1006E0008307DC0EFF23A3409A438B071B0E84076E
:1006F000E40EA3401A43114B032424021B1984085F
:10070000A4001A5118E00E4A03071B0F083B9B0870
:100710009B00D2588307DC0EFF23A3409A438B072C
:100720001B0E8407E40EA3401A43054B0407240F55
:10073000083CA408A4001A5110BD000000E100E02C
:100740001CED00E002E008C8121F08C1002AFAD11F
:1007500070477047002001E001C1121F002AFBD141
:10076000704700001CB512480468601E1149884299
:1007700000D90CE0601E104948610321081FFFF7F3
:10078000A5FF00200C4988610720086100BFFFF722
:1007900042FD0A480421002380220091019008A113
:1007A0000A4800F019FD00F077FC00201CBD000095
:1007B00000000020FFFFFF0000E000E00400002038
:1007C00073746172745F7461736B0000810D00005B
:1007D000F8B505460E462148076821480068001D07
:1007E00000F002FB681C00281CD1002E1AD01D4905
:1007F00048681B4909688860194982680968CA60A5
:1008000017490968091D8268516015490968091D61
:100810008160144A124909684A6111460968491CF5
:1008200011601AE07C190E4800684460BC4207D28F
:100830000B480168091D0C48006800F0F9FA0CE04B
:1008400007480168091D0948006800F0F1FA0848E6
:100850000068844201D206480460F8BD20000020F0
:100860000C000020240100201400002010000020B3
:100870003C00002010B5044600F002FB2B48006845
:10088000401C2A4908602A480068002808D12848E6
:1008900004600846006801280ED100F02DF90BE035
:1008A00024480068002807D121480068C06AE16A2E
:1008B000884201D81E4804601F480068401C1E4939
:1008C00008601E49E06A0968884202D91B49E06A4B
:1008D00008601422E16A5143194A89184868A060E7
:1008E0008268E260211D8268516081601422E16AA1
:1008F0005143134A8A1862611422E16A5143104A33
:100900005158491C1423E26A5A430D4B995000F088
:10091000C5FA08480068002807D005480068C06A82
:10092000E16A884201D200F02BFB10BD1C000020C0
:100930000C000020280000203800002024000020A7
:100940007000002010B516E000F09AFA0C48C0685C
:10095000C468201D00F048FA0A480068401E094992
:10096000086009480068401E0749086000F096FAD0
:10097000204600F00BF8044800680028E4D110BDC0
:10098000100100201C0000201800002010B50446B3
:10099000206B00F097FA204600F094FA10BD00009A
:1009A00030B507239B0217484407640F002C05D07D
:1009B000C01DC008C000134C041B1B1B0246124C78
:1009C00022600024104D6C60D0180838C008C000A8
:1009D0000E4C206000240D4D2D686C600B4D2D6871
:1009E0002C601146441A4C60084C24680C60084D79
:1009F0004C682C60074D4C682C600124E407064DC0
:100A00002C6030BD380100204C0000205400002034
:100A10005C000020580000206800002000BFFFF7A5
:100A200091FF034800680128F9D900F0A9FAF6E718
:100A300070000020FFB581B00F460A9E0C9C216B10
:100A40000398401E8000081800900098C008C0005D
:100A5000009000984007400F002801D1012000E0DD
:100A60000020002802D172B600BFFEE7002F11D08F
:100A7000002508E0795D204634304155785D002836
:100A800000D102E06D1C0C2DF4D300BF00213F20EB
:100A9000015502E0002134200155052E01D201202C
:100AA00000E00020002802D172B600BFFEE7052E4C
:100AB00000D30426E662266400206064201D00F056
:100AC000B4F92046183000F0B0F924610520801BED
:100AD000A06164620021A1644C200155049A01992F
:100AE000009800F03DF920600B98002801D00B9889
:100AF000046005B0F0BD000010B5002406E014212C
:100B000061430E4A881800F083F9641C052CF6D363
:100B10000B4800F07DF90B4800F07AF90A4800F024
:100B200077F90A4800F074F9094800F071F90448AF
:100B30000849086003480849086010BD700000209B
:100B4000D4000020E8000020FC000020100100205C
:100B500024010020100000201400002010B50146E0
:100B6000164800E0006803688B42FBD302464368E6
:100B70009B188B4204D143684C681B1943600146A3
:100B80000A464B689B180468A34211D10C4C0368B9
:100B90002468A34208D04B68046864681B194B6042
:100BA00003681B680B6005E0054B1B680B6001E0E8
:100BB00003680B60884200D0016010BD4C0000202B
:100BC000540000200A4800680068002801D1012074
:100BD00000E00020002804D00020C0430549086040
:100BE00005E003480068C068006802490860704773
:100BF000100000203C00002007480068401C00282E
:100C000001D1012000E00020002802D172B600BF0F
:100C1000FEE772B600BFFEE76C000020F8B50446A0
:100C20000020009000F074FA47480068002801D1C5
:100C3000FFF7B6FE454800682040002873D1002C1D
:100C400021D020460830A0421DD908346007400F4B
:100C5000002819D06007400F0821081A0019A04287
:100C60000FD96007400F081A04196007400F0028C9
:100C700001D1012000E00020002805D172B600BF9C
:100C8000FEE7002400E00024002C4CD0304800682F
:100C9000844248D82F4E3046056801E02E462D6824
:100CA0006868A04202D228680028F7D12648006868
:100CB000854238D030680830009028683060686815
:100CC000001B102813D92F197807400F002801D1D5
:100CD000012000E00020002802D172B600BFFEE72C
:100CE0006868001B78606C603846FFF737FF18496A
:100CF00068680968081A16490860084600681649B5
:100D00000968884203D212480068134908600F49F5
:100D10006868096808436860002028600F48006818
:100D2000401C0E49086000F059FB00984007400F36
:100D3000002801D1012000E00020002802D172B675
:100D400000BFFEE70098F8BD5400002068000020B6
:100D5000580000204C0000205C00002060000020B3
:100D6000001F01231B060360001F0160001F034BCF
:100D7000036014380260203870470000F90B00004F
:100D80001CB5044600F07CF80848032100238022AB
:100D90000091019006A1094800F01EFA0848006879
:100DA00000F01CF900F07AF81CBD000008000020DB
:100DB0007461736B315F7461736B0000C50D00006B
:100DC000040000200FE00F210020FFF7A3FAFF200E
:100DD000F53000F0E1F80F210020FFF73FFAFF2087
:100DE000F53000F0D9F8EEE701460A694B688868EB
:100DF00098608B68486858605068884201D188685C
:100E00005060002008611068401E10601068704734
:100E10000146083141600021C94381600146083123
:100E2000C1600161002101607047002101617047CC
:100E300010B502460B685C1C002C01D1106907E05C
:100E40001046083000E04068446824689C42FAD9A3
:100E500044684C604C68A160886041600A61146815
:100E6000641C146010BD42684A6093688B6093688C
:100E700059609160086103685B1C03607047000063
:100E800072B605480068401C03490860BFF34F8FE5
:100E9000BFF36F8F704700006C00002008480068A7
:100EA000002802D172B600BFFEE705480068401E68
:100EB0000349086008460068002800D162B6704700
:100EC0006C00002070B506463546002E3AD0083D2D
:100ED0002C461D49606809680840002801D001209F
:100EE00000E00020002802D172B600BFFEE72068B3
:100EF000002801D1012000E00020002802D172B6B4
:100F000000BFFEE71049606809680840002819D052
:100F10002068002816D10C49606809688843606021
:100F200000F0F6F809496068096840180749086048
:100F30002046FFF713FE06480068401C044908607D
:100F400000F04CFA70BD000068000020580000203E
:100F50006400002010B500200749086188617D21E8
:100F6000C90006480068FFF711F9401E02494861B0
:100F70000720086110BD000000E000E00000002034
:100F80000120000703494860BFF34F8FBFF36F8F05
:100F90007047000000ED00E070B504460025002C0D
:100FA00014D00D480068002801D1012000E0002085
:100FB000002802D172B600BFFEE700F0A9F80021B8
:100FC0002046FFF705FC00F009FA0546002D01D187
:100FD000FFF7D6FF70BD00004800002070B5054641
:100FE000FFF74EFF002D02D12448006800E028469C
:100FF0000446201DFFF7F8FEA06A002803D0204613
:101000001830FFF7F1FE1E480068401C1C490860BC
:101010001A480068844209D1211D1A48FFF723FFAE
:1010200019480068401C1849086006E01748006825
:10103000401E16490860FFF7C5FDFFF72FFF0F4858
:101040000068844202D02046FFF7A0FC10480068E8
:10105000002811D00948006884420DD10D4800686D
:10106000002801D1012000E00020002802D172B642
:1010700000BFFEE7FFF784FF70BD00000C000020FA
:101080003800002010010020180000201C00002063
:1010900028000020480000201CB5154800210B4600
:1010A000FF2201320091019012A1144800F094F83F
:1010B0000446012C0DD172B60020C04310490860CF
:1010C00001201049086000200F49086000F068F80E
:1010D0000AE0601C002801D0012000E00020002868
:1010E00002D172B600BFFEE7084800681CBD0000D0
:1010F0004000002049444C45000000001D0A00004B
:101100003C00002028000020200000204400002097
:1011100002480068401C01490860704748000020F0
:101120001A480068002803D00120194908602CE003
:101130000020174908601748016805E0002902D11E
:1011400072B600BFFEE7491E14204843124A1058E9
:10115000002801D1012000E000200028EED1142257
:101160004A430D4BD018426852684260024608322A
:101170004368934202D14268526842604268D26832
:10118000064B1A600348016000BF7047480000200A
:101190003000002024000020700000200C000020FF
:1011A00010B50B48006AFF2109040843084908628A
:1011B0000846006AFF210906084305490862FFF74F
:1011C000C9FE002003490860FEF786FF002010BD1D
:1011D00000ED00E06C000020FFB585B01746B800B8
:1011E000FFF71CFD0646002E0BD05020FFF716FD22
:1011F0000446002C01D0266304E03046FFF762FE6F
:1012000000E00024002C10D000220F990E986B46AD
:1012100013C303923A46089B06990598FFF70AFC08
:101220002046FFF727FB012501E00025ED43284676
:1012300009B0F0BDF8B5002000905D4800680028B6
:101240007ED15C480068451C5A480560002D1CD1C1
:10125000594800680068002801D1012000E0002002
:10126000002802D172B600BFFEE753480768534812
:101270000068514908605148076051480068401CA7
:101280004F490860FFF79EFC00BF4E48006885424A
:1012900075D300BF484800680068002801D10120CC
:1012A00000E00020002804D00020C0434549086029
:1012B00064E041480068C068C4686668B54202D20C
:1012C000404806605AE06069E268A1688A60A268E6
:1012D000E1684A60211D42688A4201D1E1684160AB
:1012E000002262610168491E0160A06A002813D0D3
:1012F000A06A226AE1698A60E269216A4A6021463D
:10130000183142688A4201D1216A41600022A262FA
:101310000168491E016000BF2B49E06A09688842E4
:1013200002D92949E06A08601422E16A5143274A38
:1013300089184868A0608268E260211D826800E028
:101340002FE0516081601422E16A51431F4A8A18DC
:1013500062611422E16A51431C4A5158491C14230A
:10136000E26A5A43194B99501949E06A0968C96AF7
:1013700088428FD3012000908CE700E000BF144822
:101380000068C06A1421484310490858012801D94F
:10139000012000900F480068002801D00120009033
:1013A00004E00D480068401C0B4908600098F8BD37
:1013B0004800002020000020100000201400002021
:1013C000340000203C000020240000207000002099
:1013D0000C000020300000202C00002070B50024FC
:1013E00000254D480068002802D172B600BFFEE714
:1013F000FFF746FD48480068401E47490860084618
:10140000006800287ED14548006800287FD056E05B
:101410004348C068C468A06A226AE1698A60E269D8
:10142000216A4A602146183142688A4201D1216A04
:1014300041600022A2620168491E01606069E268A1
:10144000A1688A60A268E1684A60211D42688A42F8
:1014500001D1E1684160002262610168491E0160BA
:101460003049E06A0968884202D92E49E06A08607A
:101470001422E16A51432C4A89184868A0608268A6
:10148000E260211D8268516081601422E16A51434B
:10149000254A8A1862611422E16A5143224A51584E
:1014A000491C1423E26A5A431F4B99501F49E06AB2
:1014B0000968C96A884202D301201D49086018489A
:1014C0000068002801D1012000E0002000289FD002
:1014D000002C01D0FFF776FB16480668002E0DD0D1
:1014E00000BFFFF7A7FE002802D0012010490860C6
:1014F000761E002EF5D100200E4908600C480068C9
:10150000002800E003E002D00125FFF739FDFFF7D6
:10151000C5FC284670BD0000480000201C000020CB
:10152000FC00002024000020700000200C0000209F
:10153000300000202C00002000093D0000127A003D
:101540000024F4004086510100366E0100800096B0
:10155000701500000000002070000000440700002B
:10156000E015000070000020C81E000054070000B5
:1015700000093D0000000000000000000000000025
:10158000000000000000000000000000000000005B
:10159000000000000000000000000000000000004B
:1015A000000000000000000000000000000000003B
:1015B0000000000004000000000000000000000027
:1015C000000000000000000000000000000000001B
:1015D000000000000000000000000000AAAAAAAA63
:04000005000000C136
:00000001FF
