Component: ARM Compiler 5.06 update 7 (build 960) Tool: armlink [4d3601]

==============================================================================

Image Symbol Table

    Local Symbols

    Symbol Name                              Value     Ov Type        Size  Object(Section)

    RESET                                    0x00000000   Section      192  startup_hc32f030.o(RESET)
    ../clib/microlib/division.c              0x00000000   Number         0  uidiv.o ABSOLUTE
    ../clib/microlib/init/entry.s            0x00000000   Number         0  entry2.o ABSOLUTE
    ../clib/microlib/init/entry.s            0x00000000   Number         0  entry8a.o ABSOLUTE
    ../clib/microlib/init/entry.s            0x00000000   Number         0  entry10b.o ABSOLUTE
    ../clib/microlib/init/entry.s            0x00000000   Number         0  entry8b.o ABSOLUTE
    ../clib/microlib/init/entry.s            0x00000000   Number         0  entry12a.o ABSOLUTE
    ../clib/microlib/init/entry.s            0x00000000   Number         0  entry11b.o ABSOLUTE
    ../clib/microlib/init/entry.s            0x00000000   Number         0  entry.o ABSOLUTE
    ../clib/microlib/init/entry.s            0x00000000   Number         0  entry9a.o ABSOLUTE
    ../clib/microlib/init/entry.s            0x00000000   Number         0  entry9b.o ABSOLUTE
    ../clib/microlib/init/entry.s            0x00000000   Number         0  entry10a.o ABSOLUTE
    ../clib/microlib/init/entry.s            0x00000000   Number         0  entry11a.o ABSOLUTE
    ../clib/microlib/init/entry.s            0x00000000   Number         0  entry5.o ABSOLUTE
    ../clib/microlib/init/entry.s            0x00000000   Number         0  entry12b.o ABSOLUTE
    ../clib/microlib/init/entry.s            0x00000000   Number         0  entry7b.o ABSOLUTE
    ../clib/microlib/init/entry.s            0x00000000   Number         0  entry7a.o ABSOLUTE
    ../clib/microlib/string/memcpy.c         0x00000000   Number         0  memcpya.o ABSOLUTE
    ../clib/microlib/string/memcpy.c         0x00000000   Number         0  memcpyb.o ABSOLUTE
    ../clib/microlib/stubs.s                 0x00000000   Number         0  useno.o ABSOLUTE
    ..\..\..\..\FreeRTOS\list.c              0x00000000   Number         0  list.o ABSOLUTE
    ..\..\..\..\FreeRTOS\portable\MemMang\heap_4.c 0x00000000   Number         0  heap_4.o ABSOLUTE
    ..\..\..\..\FreeRTOS\portable\RVDS\ARM_CM0\port.c 0x00000000   Number         0  port.o ABSOLUTE
    ..\..\..\..\FreeRTOS\queue.c             0x00000000   Number         0  queue.o ABSOLUTE
    ..\..\..\..\FreeRTOS\tasks.c             0x00000000   Number         0  tasks.o ABSOLUTE
    ..\..\..\..\FreeRTOS\timers.c            0x00000000   Number         0  timers.o ABSOLUTE
    ..\..\..\..\driver\src\ddl.c             0x00000000   Number         0  ddl.o ABSOLUTE
    ..\..\..\..\driver\src\gpio.c            0x00000000   Number         0  gpio.o ABSOLUTE
    ..\..\..\..\driver\src\sysctrl.c         0x00000000   Number         0  sysctrl.o ABSOLUTE
    ..\..\..\..\mcu\common\interrupts_hc32f030.c 0x00000000   Number         0  interrupts_hc32f030.o ABSOLUTE
    ..\..\..\..\mcu\common\system_hc32f030.c 0x00000000   Number         0  system_hc32f030.o ABSOLUTE
    ..\\..\\..\\..\\FreeRTOS\\list.c         0x00000000   Number         0  list.o ABSOLUTE
    ..\\..\\..\\..\\FreeRTOS\\portable\\MemMang\\heap_4.c 0x00000000   Number         0  heap_4.o ABSOLUTE
    ..\\..\\..\\..\\FreeRTOS\\portable\\RVDS\\ARM_CM0\\port.c 0x00000000   Number         0  port.o ABSOLUTE
    ..\\..\\..\\..\\FreeRTOS\\queue.c        0x00000000   Number         0  queue.o ABSOLUTE
    ..\\..\\..\\..\\FreeRTOS\\tasks.c        0x00000000   Number         0  tasks.o ABSOLUTE
    ..\\..\\..\\..\\FreeRTOS\\timers.c       0x00000000   Number         0  timers.o ABSOLUTE
    ..\\..\\..\\..\\driver\\src\\ddl.c       0x00000000   Number         0  ddl.o ABSOLUTE
    ..\\..\\..\\..\\driver\\src\\gpio.c      0x00000000   Number         0  gpio.o ABSOLUTE
    ..\\..\\..\\..\\driver\\src\\sysctrl.c   0x00000000   Number         0  sysctrl.o ABSOLUTE
    ..\\..\\..\\..\\mcu\\common\\interrupts_hc32f030.c 0x00000000   Number         0  interrupts_hc32f030.o ABSOLUTE
    ..\\..\\..\\..\\mcu\\common\\system_hc32f030.c 0x00000000   Number         0  system_hc32f030.o ABSOLUTE
    ..\\source\\main.c                       0x00000000   Number         0  main.o ABSOLUTE
    ..\source\main.c                         0x00000000   Number         0  main.o ABSOLUTE
    dc.s                                     0x00000000   Number         0  dc.o ABSOLUTE
    handlers.s                               0x00000000   Number         0  handlers.o ABSOLUTE
    init.s                                   0x00000000   Number         0  init.o ABSOLUTE
    startup_hc32f030.s                       0x00000000   Number         0  startup_hc32f030.o ABSOLUTE
    .ARM.Collect$$$$00000000                 0x000000c0   Section        0  entry.o(.ARM.Collect$$$$00000000)
    .ARM.Collect$$$$00000001                 0x000000c0   Section        4  entry2.o(.ARM.Collect$$$$00000001)
    .ARM.Collect$$$$00000004                 0x000000c4   Section        4  entry5.o(.ARM.Collect$$$$00000004)
    .ARM.Collect$$$$00000008                 0x000000c8   Section        0  entry7b.o(.ARM.Collect$$$$00000008)
    .ARM.Collect$$$$0000000A                 0x000000c8   Section        0  entry8b.o(.ARM.Collect$$$$0000000A)
    .ARM.Collect$$$$0000000B                 0x000000c8   Section        8  entry9a.o(.ARM.Collect$$$$0000000B)
    .ARM.Collect$$$$0000000E                 0x000000d0   Section        4  entry12b.o(.ARM.Collect$$$$0000000E)
    .ARM.Collect$$$$0000000F                 0x000000d4   Section        0  entry10a.o(.ARM.Collect$$$$0000000F)
    .ARM.Collect$$$$00000011                 0x000000d4   Section        0  entry11a.o(.ARM.Collect$$$$00000011)
    .ARM.Collect$$$$00002712                 0x000000d4   Section        4  entry2.o(.ARM.Collect$$$$00002712)
    __lit__00000000                          0x000000d4   Data           4  entry2.o(.ARM.Collect$$$$00002712)
    .emb_text                                0x000000d8   Section      120  port.o(.emb_text)
    .text                                    0x00000150   Section       60  startup_hc32f030.o(.text)
    .text                                    0x0000018c   Section        0  uidiv.o(.text)
    .text                                    0x000001b8   Section        0  memcpya.o(.text)
    .text                                    0x000001dc   Section       36  init.o(.text)
    i.$Sub$$main                             0x00000200   Section        0  system_hc32f030.o(i.$Sub$$main)
    i.ADC_IRQHandler                         0x0000020e   Section        0  interrupts_hc32f030.o(i.ADC_IRQHandler)
    i.App_LedInit                            0x00000216   Section        0  main.o(i.App_LedInit)
    App_LedInit                              0x00000217   Thumb Code    42  main.o(i.App_LedInit)
    i.CLKTRIM_IRQHandler                     0x00000240   Section        0  interrupts_hc32f030.o(i.CLKTRIM_IRQHandler)
    i.DMAC_IRQHandler                        0x00000248   Section        0  interrupts_hc32f030.o(i.DMAC_IRQHandler)
    i.FLASH_RAM_IRQHandler                   0x00000250   Section        0  interrupts_hc32f030.o(i.FLASH_RAM_IRQHandler)
    i.Gpio_ClrIO                             0x0000025c   Section        0  gpio.o(i.Gpio_ClrIO)
    i.Gpio_Init                              0x00000278   Section        0  gpio.o(i.Gpio_Init)
    i.Gpio_SetIO                             0x00000314   Section        0  gpio.o(i.Gpio_SetIO)
    i.I2C0_IRQHandler                        0x00000330   Section        0  interrupts_hc32f030.o(i.I2C0_IRQHandler)
    i.I2C1_IRQHandler                        0x00000338   Section        0  interrupts_hc32f030.o(i.I2C1_IRQHandler)
    i.LVD_IRQHandler                         0x00000340   Section        0  interrupts_hc32f030.o(i.LVD_IRQHandler)
    i.PCA_IRQHandler                         0x00000348   Section        0  interrupts_hc32f030.o(i.PCA_IRQHandler)
    i.PORTA_IRQHandler                       0x00000350   Section        0  interrupts_hc32f030.o(i.PORTA_IRQHandler)
    i.PORTB_IRQHandler                       0x00000358   Section        0  interrupts_hc32f030.o(i.PORTB_IRQHandler)
    i.PORTC_IRQHandler                       0x00000360   Section        0  interrupts_hc32f030.o(i.PORTC_IRQHandler)
    i.PORTD_IRQHandler                       0x00000368   Section        0  interrupts_hc32f030.o(i.PORTD_IRQHandler)
    i.SPI0_IRQHandler                        0x00000370   Section        0  interrupts_hc32f030.o(i.SPI0_IRQHandler)
    i.SPI1_IRQHandler                        0x00000378   Section        0  interrupts_hc32f030.o(i.SPI1_IRQHandler)
    i.SVC_Handler                            0x00000380   Section        0  port.o(i.SVC_Handler)
    i.SetBit                                 0x00000382   Section        0  ddl.o(i.SetBit)
    i.SysTick_Handler                        0x000003a0   Section        0  port.o(i.SysTick_Handler)
    i.Sysctrl_GetHClkFreq                    0x000003c4   Section        0  sysctrl.o(i.Sysctrl_GetHClkFreq)
    i.Sysctrl_SetPeripheralGate              0x00000538   Section        0  sysctrl.o(i.Sysctrl_SetPeripheralGate)
    i.SystemCoreClockUpdate                  0x00000550   Section        0  system_hc32f030.o(i.SystemCoreClockUpdate)
    i.SystemInit                             0x00000560   Section        0  system_hc32f030.o(i.SystemInit)
    i.TIM0_IRQHandler                        0x000005a0   Section        0  interrupts_hc32f030.o(i.TIM0_IRQHandler)
    i.TIM1_IRQHandler                        0x000005a8   Section        0  interrupts_hc32f030.o(i.TIM1_IRQHandler)
    i.TIM2_IRQHandler                        0x000005b0   Section        0  interrupts_hc32f030.o(i.TIM2_IRQHandler)
    i.TIM3_IRQHandler                        0x000005b8   Section        0  interrupts_hc32f030.o(i.TIM3_IRQHandler)
    i.TIM4_IRQHandler                        0x000005c0   Section        0  interrupts_hc32f030.o(i.TIM4_IRQHandler)
    i.TIM5_IRQHandler                        0x000005c8   Section        0  interrupts_hc32f030.o(i.TIM5_IRQHandler)
    i.TIM6_IRQHandler                        0x000005d0   Section        0  interrupts_hc32f030.o(i.TIM6_IRQHandler)
    i.UART0_IRQHandler                       0x000005d8   Section        0  interrupts_hc32f030.o(i.UART0_IRQHandler)
    i.UART1_IRQHandler                       0x000005e0   Section        0  interrupts_hc32f030.o(i.UART1_IRQHandler)
    i.VC0_IRQHandler                         0x000005e8   Section        0  interrupts_hc32f030.o(i.VC0_IRQHandler)
    i.VC1_IRQHandler                         0x000005f0   Section        0  interrupts_hc32f030.o(i.VC1_IRQHandler)
    i.WDT_IRQHandler                         0x000005f8   Section        0  interrupts_hc32f030.o(i.WDT_IRQHandler)
    i._HidePinInit                           0x00000600   Section        0  system_hc32f030.o(i._HidePinInit)
    _HidePinInit                             0x00000601   Thumb Code   162  system_hc32f030.o(i._HidePinInit)
    i.__ARM_common_switch8                   0x000006b0   Section        0  sysctrl.o(i.__ARM_common_switch8)
    i.__NVIC_SetPriority                     0x000006cc   Section        0  main.o(i.__NVIC_SetPriority)
    __NVIC_SetPriority                       0x000006cd   Thumb Code   110  main.o(i.__NVIC_SetPriority)
    i.__scatterload_copy                     0x00000744   Section       14  handlers.o(i.__scatterload_copy)
    i.__scatterload_null                     0x00000752   Section        2  handlers.o(i.__scatterload_null)
    i.__scatterload_zeroinit                 0x00000754   Section       14  handlers.o(i.__scatterload_zeroinit)
    i.main                                   0x00000764   Section        0  main.o(i.main)
    i.prvAddCurrentTaskToDelayedList         0x000007d0   Section        0  tasks.o(i.prvAddCurrentTaskToDelayedList)
    prvAddCurrentTaskToDelayedList           0x000007d1   Thumb Code   140  tasks.o(i.prvAddCurrentTaskToDelayedList)
    i.prvAddNewTaskToReadyList               0x00000874   Section        0  tasks.o(i.prvAddNewTaskToReadyList)
    prvAddNewTaskToReadyList                 0x00000875   Thumb Code   184  tasks.o(i.prvAddNewTaskToReadyList)
    i.prvCheckTasksWaitingTermination        0x00000944   Section        0  tasks.o(i.prvCheckTasksWaitingTermination)
    prvCheckTasksWaitingTermination          0x00000945   Thumb Code    60  tasks.o(i.prvCheckTasksWaitingTermination)
    i.prvDeleteTCB                           0x0000098c   Section        0  tasks.o(i.prvDeleteTCB)
    prvDeleteTCB                             0x0000098d   Thumb Code    18  tasks.o(i.prvDeleteTCB)
    i.prvHeapInit                            0x000009a0   Section        0  heap_4.o(i.prvHeapInit)
    prvHeapInit                              0x000009a1   Thumb Code   100  heap_4.o(i.prvHeapInit)
    i.prvIdleTask                            0x00000a1c   Section        0  tasks.o(i.prvIdleTask)
    prvIdleTask                              0x00000a1d   Thumb Code    20  tasks.o(i.prvIdleTask)
    i.prvInitialiseNewTask                   0x00000a34   Section        0  tasks.o(i.prvInitialiseNewTask)
    prvInitialiseNewTask                     0x00000a35   Thumb Code   194  tasks.o(i.prvInitialiseNewTask)
    i.prvInitialiseTaskLists                 0x00000af8   Section        0  tasks.o(i.prvInitialiseTaskLists)
    prvInitialiseTaskLists                   0x00000af9   Thumb Code    68  tasks.o(i.prvInitialiseTaskLists)
    i.prvInsertBlockIntoFreeList             0x00000b5c   Section        0  heap_4.o(i.prvInsertBlockIntoFreeList)
    prvInsertBlockIntoFreeList               0x00000b5d   Thumb Code    96  heap_4.o(i.prvInsertBlockIntoFreeList)
    i.prvResetNextTaskUnblockTime            0x00000bc4   Section        0  tasks.o(i.prvResetNextTaskUnblockTime)
    prvResetNextTaskUnblockTime              0x00000bc5   Thumb Code    44  tasks.o(i.prvResetNextTaskUnblockTime)
    i.prvTaskExitError                       0x00000bf8   Section        0  port.o(i.prvTaskExitError)
    prvTaskExitError                         0x00000bf9   Thumb Code    32  port.o(i.prvTaskExitError)
    i.pvPortMalloc                           0x00000c1c   Section        0  heap_4.o(i.pvPortMalloc)
    i.pxPortInitialiseStack                  0x00000d60   Section        0  port.o(i.pxPortInitialiseStack)
    i.start_task                             0x00000d80   Section        0  main.o(i.start_task)
    i.task1_task                             0x00000dc4   Section        0  main.o(i.task1_task)
    i.uxListRemove                           0x00000de8   Section        0  list.o(i.uxListRemove)
    i.vListInitialise                        0x00000e10   Section        0  list.o(i.vListInitialise)
    i.vListInitialiseItem                    0x00000e2a   Section        0  list.o(i.vListInitialiseItem)
    i.vListInsert                            0x00000e30   Section        0  list.o(i.vListInsert)
    i.vListInsertEnd                         0x00000e66   Section        0  list.o(i.vListInsertEnd)
    i.vPortEnterCritical                     0x00000e80   Section        0  port.o(i.vPortEnterCritical)
    i.vPortExitCritical                      0x00000e9c   Section        0  port.o(i.vPortExitCritical)
    i.vPortFree                              0x00000ec4   Section        0  heap_4.o(i.vPortFree)
    i.vPortSetupTimerInterrupt               0x00000f54   Section        0  port.o(i.vPortSetupTimerInterrupt)
    i.vPortYield                             0x00000f80   Section        0  port.o(i.vPortYield)
    i.vTaskDelay                             0x00000f98   Section        0  tasks.o(i.vTaskDelay)
    i.vTaskDelete                            0x00000fdc   Section        0  tasks.o(i.vTaskDelete)
    i.vTaskStartScheduler                    0x00001098   Section        0  tasks.o(i.vTaskStartScheduler)
    i.vTaskSuspendAll                        0x00001110   Section        0  tasks.o(i.vTaskSuspendAll)
    i.vTaskSwitchContext                     0x00001120   Section        0  tasks.o(i.vTaskSwitchContext)
    i.xPortStartScheduler                    0x000011a0   Section        0  port.o(i.xPortStartScheduler)
    i.xTaskCreate                            0x000011d8   Section        0  tasks.o(i.xTaskCreate)
    i.xTaskIncrementTick                     0x00001234   Section        0  tasks.o(i.xTaskIncrementTick)
    i.xTaskResumeAll                         0x000013dc   Section        0  tasks.o(i.xTaskResumeAll)
    .constdata                               0x00001538   Section       24  sysctrl.o(.constdata)
    .data                                    0x20000000   Section        4  system_hc32f030.o(.data)
    .data                                    0x20000004   Section        8  main.o(.data)
    .data                                    0x2000000c   Section       64  tasks.o(.data)
    pxDelayedTaskList                        0x20000010   Data           4  tasks.o(.data)
    pxOverflowDelayedTaskList                0x20000014   Data           4  tasks.o(.data)
    uxDeletedTasksWaitingCleanUp             0x20000018   Data           4  tasks.o(.data)
    uxCurrentNumberOfTasks                   0x2000001c   Data           4  tasks.o(.data)
    xTickCount                               0x20000020   Data           4  tasks.o(.data)
    uxTopReadyPriority                       0x20000024   Data           4  tasks.o(.data)
    xSchedulerRunning                        0x20000028   Data           4  tasks.o(.data)
    xPendedTicks                             0x2000002c   Data           4  tasks.o(.data)
    xYieldPending                            0x20000030   Data           4  tasks.o(.data)
    xNumOfOverflows                          0x20000034   Data           4  tasks.o(.data)
    uxTaskNumber                             0x20000038   Data           4  tasks.o(.data)
    xNextTaskUnblockTime                     0x2000003c   Data           4  tasks.o(.data)
    xIdleTaskHandle                          0x20000040   Data           4  tasks.o(.data)
    uxSchedulerSuspended                     0x20000048   Data           4  tasks.o(.data)
    .data                                    0x2000004c   Section       32  heap_4.o(.data)
    xStart                                   0x2000004c   Data           8  heap_4.o(.data)
    pxEnd                                    0x20000054   Data           4  heap_4.o(.data)
    xFreeBytesRemaining                      0x20000058   Data           4  heap_4.o(.data)
    xMinimumEverFreeBytesRemaining           0x2000005c   Data           4  heap_4.o(.data)
    xNumberOfSuccessfulAllocations           0x20000060   Data           4  heap_4.o(.data)
    xNumberOfSuccessfulFrees                 0x20000064   Data           4  heap_4.o(.data)
    xBlockAllocatedBit                       0x20000068   Data           4  heap_4.o(.data)
    .data                                    0x2000006c   Section        4  port.o(.data)
    uxCriticalNesting                        0x2000006c   Data           4  port.o(.data)
    .bss                                     0x20000070   Section      200  tasks.o(.bss)
    pxReadyTasksLists                        0x20000070   Data         100  tasks.o(.bss)
    xDelayedTaskList1                        0x200000d4   Data          20  tasks.o(.bss)
    xDelayedTaskList2                        0x200000e8   Data          20  tasks.o(.bss)
    xPendingReadyList                        0x200000fc   Data          20  tasks.o(.bss)
    xTasksWaitingTermination                 0x20000110   Data          20  tasks.o(.bss)
    xSuspendedTaskList                       0x20000124   Data          20  tasks.o(.bss)
    .bss                                     0x20000138   Section     7168  heap_4.o(.bss)
    ucHeap                                   0x20000138   Data        7168  heap_4.o(.bss)
    STACK                                    0x20001d38   Section      512  startup_hc32f030.o(STACK)

    Global Symbols

    Symbol Name                              Value     Ov Type        Size  Object(Section)

    BuildAttributes$$THM_ISAv3M$S$PE$A:L22$X:L11$S22$IEEE1$IW$USESV6$~STKCKD$USESV7$~SHL$OSPACE$EBA8$MICROLIB$REQ8$PRES8$EABIv2 0x00000000   Number         0  anon$$obj.o ABSOLUTE
    __ARM_use_no_argv                        0x00000000   Number         0  main.o ABSOLUTE
    __Vectors                                0x00000000   Data           0  startup_hc32f030.o(RESET)
    __use_no_errno                           0x00000000   Number         0  useno.o ABSOLUTE
    __use_no_exception_handling              0x00000000   Number         0  useno.o ABSOLUTE
    __use_no_fp                              0x00000000   Number         0  useno.o ABSOLUTE
    __use_no_heap                            0x00000000   Number         0  useno.o ABSOLUTE
    __use_no_heap_region                     0x00000000   Number         0  useno.o ABSOLUTE
    __use_no_semihosting                     0x00000000   Number         0  useno.o ABSOLUTE
    __use_no_semihosting_swi                 0x00000000   Number         0  useno.o ABSOLUTE
    __use_no_signal_handling                 0x00000000   Number         0  useno.o ABSOLUTE
    Adc_IRQHandler                            - Undefined Weak Reference
    ClkTrim_IRQHandler                        - Undefined Weak Reference
    Dmac_IRQHandler                           - Undefined Weak Reference
    Flash_IRQHandler                          - Undefined Weak Reference
    I2c0_IRQHandler                           - Undefined Weak Reference
    I2c1_IRQHandler                           - Undefined Weak Reference
    Lvd_IRQHandler                            - Undefined Weak Reference
    Pca_IRQHandler                            - Undefined Weak Reference
    PortA_IRQHandler                          - Undefined Weak Reference
    PortB_IRQHandler                          - Undefined Weak Reference
    PortC_IRQHandler                          - Undefined Weak Reference
    PortD_IRQHandler                          - Undefined Weak Reference
    Ram_IRQHandler                            - Undefined Weak Reference
    Spi0_IRQHandler                           - Undefined Weak Reference
    Spi1_IRQHandler                           - Undefined Weak Reference
    Tim0_IRQHandler                           - Undefined Weak Reference
    Tim1_IRQHandler                           - Undefined Weak Reference
    Tim2_IRQHandler                           - Undefined Weak Reference
    Tim3_IRQHandler                           - Undefined Weak Reference
    Tim4_IRQHandler                           - Undefined Weak Reference
    Tim5_IRQHandler                           - Undefined Weak Reference
    Tim6_IRQHandler                           - Undefined Weak Reference
    Uart0_IRQHandler                          - Undefined Weak Reference
    Uart1_IRQHandler                          - Undefined Weak Reference
    Vc0_IRQHandler                            - Undefined Weak Reference
    Vc1_IRQHandler                            - Undefined Weak Reference
    Wdt_IRQHandler                            - Undefined Weak Reference
    __arm_fini_                               - Undefined Weak Reference
    __cpp_initialize__aeabi_                  - Undefined Weak Reference
    __cxa_finalize                            - Undefined Weak Reference
    __decompress                              - Undefined Weak Reference
    _clock_init                               - Undefined Weak Reference
    _microlib_exit                            - Undefined Weak Reference
    __Vectors_End                            0x000000c0   Data           0  startup_hc32f030.o(RESET)
    __Vectors_Size                           0x000000c0   Number         0  startup_hc32f030.o ABSOLUTE
    __main                                   0x000000c1   Thumb Code     0  entry.o(.ARM.Collect$$$$00000000)
    _main_stk                                0x000000c1   Thumb Code     0  entry2.o(.ARM.Collect$$$$00000001)
    _main_scatterload                        0x000000c5   Thumb Code     0  entry5.o(.ARM.Collect$$$$00000004)
    __main_after_scatterload                 0x000000c9   Thumb Code     0  entry5.o(.ARM.Collect$$$$00000004)
    _main_clock                              0x000000c9   Thumb Code     0  entry7b.o(.ARM.Collect$$$$00000008)
    _main_cpp_init                           0x000000c9   Thumb Code     0  entry8b.o(.ARM.Collect$$$$0000000A)
    _main_init                               0x000000c9   Thumb Code     0  entry9a.o(.ARM.Collect$$$$0000000B)
    __rt_lib_shutdown_fini                   0x000000d1   Thumb Code     0  entry12b.o(.ARM.Collect$$$$0000000E)
    __rt_final_cpp                           0x000000d5   Thumb Code     0  entry10a.o(.ARM.Collect$$$$0000000F)
    __rt_final_exit                          0x000000d5   Thumb Code     0  entry11a.o(.ARM.Collect$$$$00000011)
    __asm___6_port_c_39a90d8d__prvPortStartFirstTask 0x000000d9   Thumb Code    36  port.o(.emb_text)
    ulSetInterruptMaskFromISR                0x00000101   Thumb Code     8  port.o(.emb_text)
    vClearInterruptMaskFromISR               0x00000109   Thumb Code     6  port.o(.emb_text)
    PendSV_Handler                           0x0000010f   Thumb Code    62  port.o(.emb_text)
    Reset_Handler                            0x00000151   Thumb Code    26  startup_hc32f030.o(.text)
    NMI_Handler                              0x0000016b   Thumb Code     2  startup_hc32f030.o(.text)
    HardFault_Handler                        0x0000016d   Thumb Code     2  startup_hc32f030.o(.text)
    vPortSVCHandler                          0x0000016f   Thumb Code     2  startup_hc32f030.o(.text)
    xPortPendSVHandler                       0x00000171   Thumb Code     2  startup_hc32f030.o(.text)
    xPortSysTickHandler                      0x00000173   Thumb Code     2  startup_hc32f030.o(.text)
    Dummy_Handler                            0x00000175   Thumb Code     0  startup_hc32f030.o(.text)
    __aeabi_uidiv                            0x0000018d   Thumb Code     0  uidiv.o(.text)
    __aeabi_uidivmod                         0x0000018d   Thumb Code    44  uidiv.o(.text)
    __aeabi_memcpy                           0x000001b9   Thumb Code    36  memcpya.o(.text)
    __aeabi_memcpy4                          0x000001b9   Thumb Code     0  memcpya.o(.text)
    __aeabi_memcpy8                          0x000001b9   Thumb Code     0  memcpya.o(.text)
    __scatterload                            0x000001dd   Thumb Code    28  init.o(.text)
    __scatterload_rt2                        0x000001dd   Thumb Code     0  init.o(.text)
    main                                     0x00000201   Thumb Code    14  system_hc32f030.o(i.$Sub$$main)
    ADC_IRQHandler                           0x0000020f   Thumb Code     8  interrupts_hc32f030.o(i.ADC_IRQHandler)
    CLKTRIM_IRQHandler                       0x00000241   Thumb Code     8  interrupts_hc32f030.o(i.CLKTRIM_IRQHandler)
    DMAC_IRQHandler                          0x00000249   Thumb Code     8  interrupts_hc32f030.o(i.DMAC_IRQHandler)
    FLASH_RAM_IRQHandler                     0x00000251   Thumb Code    12  interrupts_hc32f030.o(i.FLASH_RAM_IRQHandler)
    Gpio_ClrIO                               0x0000025d   Thumb Code    22  gpio.o(i.Gpio_ClrIO)
    Gpio_Init                                0x00000279   Thumb Code   144  gpio.o(i.Gpio_Init)
    Gpio_SetIO                               0x00000315   Thumb Code    22  gpio.o(i.Gpio_SetIO)
    I2C0_IRQHandler                          0x00000331   Thumb Code     8  interrupts_hc32f030.o(i.I2C0_IRQHandler)
    I2C1_IRQHandler                          0x00000339   Thumb Code     8  interrupts_hc32f030.o(i.I2C1_IRQHandler)
    LVD_IRQHandler                           0x00000341   Thumb Code     8  interrupts_hc32f030.o(i.LVD_IRQHandler)
    PCA_IRQHandler                           0x00000349   Thumb Code     8  interrupts_hc32f030.o(i.PCA_IRQHandler)
    PORTA_IRQHandler                         0x00000351   Thumb Code     8  interrupts_hc32f030.o(i.PORTA_IRQHandler)
    PORTB_IRQHandler                         0x00000359   Thumb Code     8  interrupts_hc32f030.o(i.PORTB_IRQHandler)
    PORTC_IRQHandler                         0x00000361   Thumb Code     8  interrupts_hc32f030.o(i.PORTC_IRQHandler)
    PORTD_IRQHandler                         0x00000369   Thumb Code     8  interrupts_hc32f030.o(i.PORTD_IRQHandler)
    SPI0_IRQHandler                          0x00000371   Thumb Code     8  interrupts_hc32f030.o(i.SPI0_IRQHandler)
    SPI1_IRQHandler                          0x00000379   Thumb Code     8  interrupts_hc32f030.o(i.SPI1_IRQHandler)
    SVC_Handler                              0x00000381   Thumb Code     2  port.o(i.SVC_Handler)
    SetBit                                   0x00000383   Thumb Code    30  ddl.o(i.SetBit)
    SysTick_Handler                          0x000003a1   Thumb Code    32  port.o(i.SysTick_Handler)
    Sysctrl_GetHClkFreq                      0x000003c5   Thumb Code   354  sysctrl.o(i.Sysctrl_GetHClkFreq)
    Sysctrl_SetPeripheralGate                0x00000539   Thumb Code    20  sysctrl.o(i.Sysctrl_SetPeripheralGate)
    SystemCoreClockUpdate                    0x00000551   Thumb Code    12  system_hc32f030.o(i.SystemCoreClockUpdate)
    SystemInit                               0x00000561   Thumb Code    56  system_hc32f030.o(i.SystemInit)
    TIM0_IRQHandler                          0x000005a1   Thumb Code     8  interrupts_hc32f030.o(i.TIM0_IRQHandler)
    TIM1_IRQHandler                          0x000005a9   Thumb Code     8  interrupts_hc32f030.o(i.TIM1_IRQHandler)
    TIM2_IRQHandler                          0x000005b1   Thumb Code     8  interrupts_hc32f030.o(i.TIM2_IRQHandler)
    TIM3_IRQHandler                          0x000005b9   Thumb Code     8  interrupts_hc32f030.o(i.TIM3_IRQHandler)
    TIM4_IRQHandler                          0x000005c1   Thumb Code     8  interrupts_hc32f030.o(i.TIM4_IRQHandler)
    TIM5_IRQHandler                          0x000005c9   Thumb Code     8  interrupts_hc32f030.o(i.TIM5_IRQHandler)
    TIM6_IRQHandler                          0x000005d1   Thumb Code     8  interrupts_hc32f030.o(i.TIM6_IRQHandler)
    UART0_IRQHandler                         0x000005d9   Thumb Code     8  interrupts_hc32f030.o(i.UART0_IRQHandler)
    UART1_IRQHandler                         0x000005e1   Thumb Code     8  interrupts_hc32f030.o(i.UART1_IRQHandler)
    VC0_IRQHandler                           0x000005e9   Thumb Code     8  interrupts_hc32f030.o(i.VC0_IRQHandler)
    VC1_IRQHandler                           0x000005f1   Thumb Code     8  interrupts_hc32f030.o(i.VC1_IRQHandler)
    WDT_IRQHandler                           0x000005f9   Thumb Code     8  interrupts_hc32f030.o(i.WDT_IRQHandler)
    __ARM_common_switch8                     0x000006b1   Thumb Code    28  sysctrl.o(i.__ARM_common_switch8)
    __scatterload_copy                       0x00000745   Thumb Code    14  handlers.o(i.__scatterload_copy)
    __scatterload_null                       0x00000753   Thumb Code     2  handlers.o(i.__scatterload_null)
    __scatterload_zeroinit                   0x00000755   Thumb Code    14  handlers.o(i.__scatterload_zeroinit)
    $Super$$main                             0x00000765   Thumb Code    74  main.o(i.main)
    pvPortMalloc                             0x00000c1d   Thumb Code   300  heap_4.o(i.pvPortMalloc)
    pxPortInitialiseStack                    0x00000d61   Thumb Code    26  port.o(i.pxPortInitialiseStack)
    start_task                               0x00000d81   Thumb Code    42  main.o(i.start_task)
    task1_task                               0x00000dc5   Thumb Code    36  main.o(i.task1_task)
    uxListRemove                             0x00000de9   Thumb Code    40  list.o(i.uxListRemove)
    vListInitialise                          0x00000e11   Thumb Code    26  list.o(i.vListInitialise)
    vListInitialiseItem                      0x00000e2b   Thumb Code     6  list.o(i.vListInitialiseItem)
    vListInsert                              0x00000e31   Thumb Code    54  list.o(i.vListInsert)
    vListInsertEnd                           0x00000e67   Thumb Code    24  list.o(i.vListInsertEnd)
    vPortEnterCritical                       0x00000e81   Thumb Code    22  port.o(i.vPortEnterCritical)
    vPortExitCritical                        0x00000e9d   Thumb Code    36  port.o(i.vPortExitCritical)
    vPortFree                                0x00000ec5   Thumb Code   130  heap_4.o(i.vPortFree)
    vPortSetupTimerInterrupt                 0x00000f55   Thumb Code    34  port.o(i.vPortSetupTimerInterrupt)
    vPortYield                               0x00000f81   Thumb Code    18  port.o(i.vPortYield)
    vTaskDelay                               0x00000f99   Thumb Code    62  tasks.o(i.vTaskDelay)
    vTaskDelete                              0x00000fdd   Thumb Code   158  tasks.o(i.vTaskDelete)
    vTaskStartScheduler                      0x00001099   Thumb Code    86  tasks.o(i.vTaskStartScheduler)
    vTaskSuspendAll                          0x00001111   Thumb Code    12  tasks.o(i.vTaskSuspendAll)
    vTaskSwitchContext                       0x00001121   Thumb Code   108  tasks.o(i.vTaskSwitchContext)
    xPortStartScheduler                      0x000011a1   Thumb Code    48  port.o(i.xPortStartScheduler)
    xTaskCreate                              0x000011d9   Thumb Code    92  tasks.o(i.xTaskCreate)
    xTaskIncrementTick                       0x00001235   Thumb Code   380  tasks.o(i.xTaskIncrementTick)
    xTaskResumeAll                           0x000013dd   Thumb Code   314  tasks.o(i.xTaskResumeAll)
    Region$$Table$$Base                      0x00001550   Number         0  anon$$obj.o(Region$$Table)
    Region$$Table$$Limit                     0x00001570   Number         0  anon$$obj.o(Region$$Table)
    SystemCoreClock                          0x20000000   Data           4  system_hc32f030.o(.data)
    StartTask_Handler                        0x20000004   Data           4  main.o(.data)
    Task1Task_Handler                        0x20000008   Data           4  main.o(.data)
    pxCurrentTCB                             0x2000000c   Data           4  tasks.o(.data)
    uxTopUsedPriority                        0x20000044   Data           4  tasks.o(.data)
    __initial_sp                             0x20001f38   Data           0  startup_hc32f030.o(STACK)



==============================================================================

Memory Map of the image

  Image Entry point : 0x000000c1

  Load Region LR_IROM1 (Base: 0x00000000, Size: 0x000015e0, Max: 0x00010000, ABSOLUTE)

    Execution Region ER_IROM1 (Exec base: 0x00000000, Load base: 0x00000000, Size: 0x00001570, Max: 0x00010000, ABSOLUTE)

    Exec Addr    Load Addr    Size         Type   Attr      Idx    E Section Name        Object

    0x00000000   0x00000000   0x000000c0   Data   RO            3    RESET               startup_hc32f030.o
    0x000000c0   0x000000c0   0x00000000   Code   RO         1548  * .ARM.Collect$$$$00000000  mc_p.l(entry.o)
    0x000000c0   0x000000c0   0x00000004   Code   RO         1557    .ARM.Collect$$$$00000001  mc_p.l(entry2.o)
    0x000000c4   0x000000c4   0x00000004   Code   RO         1560    .ARM.Collect$$$$00000004  mc_p.l(entry5.o)
    0x000000c8   0x000000c8   0x00000000   Code   RO         1562    .ARM.Collect$$$$00000008  mc_p.l(entry7b.o)
    0x000000c8   0x000000c8   0x00000000   Code   RO         1564    .ARM.Collect$$$$0000000A  mc_p.l(entry8b.o)
    0x000000c8   0x000000c8   0x00000008   Code   RO         1565    .ARM.Collect$$$$0000000B  mc_p.l(entry9a.o)
    0x000000d0   0x000000d0   0x00000004   Code   RO         1572    .ARM.Collect$$$$0000000E  mc_p.l(entry12b.o)
    0x000000d4   0x000000d4   0x00000000   Code   RO         1567    .ARM.Collect$$$$0000000F  mc_p.l(entry10a.o)
    0x000000d4   0x000000d4   0x00000000   Code   RO         1569    .ARM.Collect$$$$00000011  mc_p.l(entry11a.o)
    0x000000d4   0x000000d4   0x00000004   Code   RO         1558    .ARM.Collect$$$$00002712  mc_p.l(entry2.o)
    0x000000d8   0x000000d8   0x00000078   Code   RO         1462    .emb_text           port.o
    0x00000150   0x00000150   0x0000003c   Code   RO            4    .text               startup_hc32f030.o
    0x0000018c   0x0000018c   0x0000002c   Code   RO         1551    .text               mc_p.l(uidiv.o)
    0x000001b8   0x000001b8   0x00000024   Code   RO         1553    .text               mc_p.l(memcpya.o)
    0x000001dc   0x000001dc   0x00000024   Code   RO         1573    .text               mc_p.l(init.o)
    0x00000200   0x00000200   0x0000000e   Code   RO           12    i.$Sub$$main        system_hc32f030.o
    0x0000020e   0x0000020e   0x00000008   Code   RO          108    i.ADC_IRQHandler    interrupts_hc32f030.o
    0x00000216   0x00000216   0x0000002a   Code   RO          296    i.App_LedInit       main.o
    0x00000240   0x00000240   0x00000008   Code   RO          109    i.CLKTRIM_IRQHandler  interrupts_hc32f030.o
    0x00000248   0x00000248   0x00000008   Code   RO          110    i.DMAC_IRQHandler   interrupts_hc32f030.o
    0x00000250   0x00000250   0x0000000c   Code   RO          112    i.FLASH_RAM_IRQHandler  interrupts_hc32f030.o
    0x0000025c   0x0000025c   0x0000001c   Code   RO          631    i.Gpio_ClrIO        gpio.o
    0x00000278   0x00000278   0x0000009c   Code   RO          638    i.Gpio_Init         gpio.o
    0x00000314   0x00000314   0x0000001c   Code   RO          643    i.Gpio_SetIO        gpio.o
    0x00000330   0x00000330   0x00000008   Code   RO          113    i.I2C0_IRQHandler   interrupts_hc32f030.o
    0x00000338   0x00000338   0x00000008   Code   RO          114    i.I2C1_IRQHandler   interrupts_hc32f030.o
    0x00000340   0x00000340   0x00000008   Code   RO          115    i.LVD_IRQHandler    interrupts_hc32f030.o
    0x00000348   0x00000348   0x00000008   Code   RO          116    i.PCA_IRQHandler    interrupts_hc32f030.o
    0x00000350   0x00000350   0x00000008   Code   RO          117    i.PORTA_IRQHandler  interrupts_hc32f030.o
    0x00000358   0x00000358   0x00000008   Code   RO          118    i.PORTB_IRQHandler  interrupts_hc32f030.o
    0x00000360   0x00000360   0x00000008   Code   RO          119    i.PORTC_IRQHandler  interrupts_hc32f030.o
    0x00000368   0x00000368   0x00000008   Code   RO          120    i.PORTD_IRQHandler  interrupts_hc32f030.o
    0x00000370   0x00000370   0x00000008   Code   RO          121    i.SPI0_IRQHandler   interrupts_hc32f030.o
    0x00000378   0x00000378   0x00000008   Code   RO          122    i.SPI1_IRQHandler   interrupts_hc32f030.o
    0x00000380   0x00000380   0x00000002   Code   RO         1463    i.SVC_Handler       port.o
    0x00000382   0x00000382   0x0000001e   Code   RO          379    i.SetBit            ddl.o
    0x000003a0   0x000003a0   0x00000024   Code   RO         1464    i.SysTick_Handler   port.o
    0x000003c4   0x000003c4   0x00000174   Code   RO          485    i.Sysctrl_GetHClkFreq  sysctrl.o
    0x00000538   0x00000538   0x00000018   Code   RO          493    i.Sysctrl_SetPeripheralGate  sysctrl.o
    0x00000550   0x00000550   0x00000010   Code   RO           13    i.SystemCoreClockUpdate  system_hc32f030.o
    0x00000560   0x00000560   0x00000040   Code   RO           14    i.SystemInit        system_hc32f030.o
    0x000005a0   0x000005a0   0x00000008   Code   RO          123    i.TIM0_IRQHandler   interrupts_hc32f030.o
    0x000005a8   0x000005a8   0x00000008   Code   RO          124    i.TIM1_IRQHandler   interrupts_hc32f030.o
    0x000005b0   0x000005b0   0x00000008   Code   RO          125    i.TIM2_IRQHandler   interrupts_hc32f030.o
    0x000005b8   0x000005b8   0x00000008   Code   RO          126    i.TIM3_IRQHandler   interrupts_hc32f030.o
    0x000005c0   0x000005c0   0x00000008   Code   RO          127    i.TIM4_IRQHandler   interrupts_hc32f030.o
    0x000005c8   0x000005c8   0x00000008   Code   RO          128    i.TIM5_IRQHandler   interrupts_hc32f030.o
    0x000005d0   0x000005d0   0x00000008   Code   RO          129    i.TIM6_IRQHandler   interrupts_hc32f030.o
    0x000005d8   0x000005d8   0x00000008   Code   RO          130    i.UART0_IRQHandler  interrupts_hc32f030.o
    0x000005e0   0x000005e0   0x00000008   Code   RO          131    i.UART1_IRQHandler  interrupts_hc32f030.o
    0x000005e8   0x000005e8   0x00000008   Code   RO          132    i.VC0_IRQHandler    interrupts_hc32f030.o
    0x000005f0   0x000005f0   0x00000008   Code   RO          133    i.VC1_IRQHandler    interrupts_hc32f030.o
    0x000005f8   0x000005f8   0x00000008   Code   RO          134    i.WDT_IRQHandler    interrupts_hc32f030.o
    0x00000600   0x00000600   0x000000b0   Code   RO           15    i._HidePinInit      system_hc32f030.o
    0x000006b0   0x000006b0   0x0000001c   Code   RO          623    i.__ARM_common_switch8  sysctrl.o
    0x000006cc   0x000006cc   0x00000078   Code   RO          297    i.__NVIC_SetPriority  main.o
    0x00000744   0x00000744   0x0000000e   Code   RO         1577    i.__scatterload_copy  mc_p.l(handlers.o)
    0x00000752   0x00000752   0x00000002   Code   RO         1578    i.__scatterload_null  mc_p.l(handlers.o)
    0x00000754   0x00000754   0x0000000e   Code   RO         1579    i.__scatterload_zeroinit  mc_p.l(handlers.o)
    0x00000762   0x00000762   0x00000002   PAD
    0x00000764   0x00000764   0x0000006c   Code   RO          298    i.main              main.o
    0x000007d0   0x000007d0   0x000000a4   Code   RO         1062    i.prvAddCurrentTaskToDelayedList  tasks.o
    0x00000874   0x00000874   0x000000d0   Code   RO         1063    i.prvAddNewTaskToReadyList  tasks.o
    0x00000944   0x00000944   0x00000048   Code   RO         1064    i.prvCheckTasksWaitingTermination  tasks.o
    0x0000098c   0x0000098c   0x00000012   Code   RO         1065    i.prvDeleteTCB      tasks.o
    0x0000099e   0x0000099e   0x00000002   PAD
    0x000009a0   0x000009a0   0x0000007c   Code   RO         1399    i.prvHeapInit       heap_4.o
    0x00000a1c   0x00000a1c   0x00000018   Code   RO         1066    i.prvIdleTask       tasks.o
    0x00000a34   0x00000a34   0x000000c2   Code   RO         1067    i.prvInitialiseNewTask  tasks.o
    0x00000af6   0x00000af6   0x00000002   PAD
    0x00000af8   0x00000af8   0x00000064   Code   RO         1068    i.prvInitialiseTaskLists  tasks.o
    0x00000b5c   0x00000b5c   0x00000068   Code   RO         1400    i.prvInsertBlockIntoFreeList  heap_4.o
    0x00000bc4   0x00000bc4   0x00000034   Code   RO         1069    i.prvResetNextTaskUnblockTime  tasks.o
    0x00000bf8   0x00000bf8   0x00000024   Code   RO         1465    i.prvTaskExitError  port.o
    0x00000c1c   0x00000c1c   0x00000144   Code   RO         1401    i.pvPortMalloc      heap_4.o
    0x00000d60   0x00000d60   0x00000020   Code   RO         1466    i.pxPortInitialiseStack  port.o
    0x00000d80   0x00000d80   0x00000044   Code   RO          299    i.start_task        main.o
    0x00000dc4   0x00000dc4   0x00000024   Code   RO          300    i.task1_task        main.o
    0x00000de8   0x00000de8   0x00000028   Code   RO          800    i.uxListRemove      list.o
    0x00000e10   0x00000e10   0x0000001a   Code   RO          801    i.vListInitialise   list.o
    0x00000e2a   0x00000e2a   0x00000006   Code   RO          802    i.vListInitialiseItem  list.o
    0x00000e30   0x00000e30   0x00000036   Code   RO          803    i.vListInsert       list.o
    0x00000e66   0x00000e66   0x00000018   Code   RO          804    i.vListInsertEnd    list.o
    0x00000e7e   0x00000e7e   0x00000002   PAD
    0x00000e80   0x00000e80   0x0000001c   Code   RO         1468    i.vPortEnterCritical  port.o
    0x00000e9c   0x00000e9c   0x00000028   Code   RO         1469    i.vPortExitCritical  port.o
    0x00000ec4   0x00000ec4   0x00000090   Code   RO         1402    i.vPortFree         heap_4.o
    0x00000f54   0x00000f54   0x0000002c   Code   RO         1470    i.vPortSetupTimerInterrupt  port.o
    0x00000f80   0x00000f80   0x00000018   Code   RO         1471    i.vPortYield        port.o
    0x00000f98   0x00000f98   0x00000044   Code   RO         1078    i.vTaskDelay        tasks.o
    0x00000fdc   0x00000fdc   0x000000bc   Code   RO         1079    i.vTaskDelete       tasks.o
    0x00001098   0x00001098   0x00000078   Code   RO         1091    i.vTaskStartScheduler  tasks.o
    0x00001110   0x00001110   0x00000010   Code   RO         1093    i.vTaskSuspendAll   tasks.o
    0x00001120   0x00001120   0x00000080   Code   RO         1094    i.vTaskSwitchContext  tasks.o
    0x000011a0   0x000011a0   0x00000038   Code   RO         1472    i.xPortStartScheduler  port.o
    0x000011d8   0x000011d8   0x0000005c   Code   RO         1097    i.xTaskCreate       tasks.o
    0x00001234   0x00001234   0x000001a8   Code   RO         1106    i.xTaskIncrementTick  tasks.o
    0x000013dc   0x000013dc   0x0000015c   Code   RO         1110    i.xTaskResumeAll    tasks.o
    0x00001538   0x00001538   0x00000018   Data   RO          504    .constdata          sysctrl.o
    0x00001550   0x00001550   0x00000020   Data   RO         1575    Region$$Table       anon$$obj.o


    Execution Region RW_IRAM1 (Exec base: 0x20000000, Load base: 0x00001570, Size: 0x00001f38, Max: 0x00002000, ABSOLUTE)

    Exec Addr    Load Addr    Size         Type   Attr      Idx    E Section Name        Object

    0x20000000   0x00001570   0x00000004   Data   RW           16    .data               system_hc32f030.o
    0x20000004   0x00001574   0x00000008   Data   RW          301    .data               main.o
    0x2000000c   0x0000157c   0x00000040   Data   RW         1113    .data               tasks.o
    0x2000004c   0x000015bc   0x00000020   Data   RW         1408    .data               heap_4.o
    0x2000006c   0x000015dc   0x00000004   Data   RW         1473    .data               port.o
    0x20000070        -       0x000000c8   Zero   RW         1112    .bss                tasks.o
    0x20000138        -       0x00001c00   Zero   RW         1407    .bss                heap_4.o
    0x20001d38        -       0x00000200   Zero   RW            1    STACK               startup_hc32f030.o


==============================================================================

Image component sizes


      Code (inc. data)   RO Data    RW Data    ZI Data      Debug   Object Name

        30          0          0          0          0        545   ddl.o
       212         24          0          0          0       2086   gpio.o
       696         70          0         32       7168       4255   heap_4.o
       212          0          0          0          0      12448   interrupts_hc32f030.o
       150          0          0          0          0       5618   list.o
       374         70          0          8          0      27215   main.o
       418         58          0          4          0       6683   port.o
        60         22        192          0        512        632   startup_hc32f030.o
       424         30         24          0          0       2674   sysctrl.o
       270         26          0          4          0     110740   system_hc32f030.o
      2216        276          0         64        200      20841   tasks.o

    ----------------------------------------------------------------------
      5068        576        248        112       7880     193737   Object Totals
         0          0         32          0          0          0   (incl. Generated)
         6          0          0          0          0          0   (incl. Padding)

    ----------------------------------------------------------------------

      Code (inc. data)   RO Data    RW Data    ZI Data      Debug   Library Member Name

         0          0          0          0          0          0   entry.o
         0          0          0          0          0          0   entry10a.o
         0          0          0          0          0          0   entry11a.o
         4          0          0          0          0          0   entry12b.o
         8          4          0          0          0          0   entry2.o
         4          0          0          0          0          0   entry5.o
         0          0          0          0          0          0   entry7b.o
         0          0          0          0          0          0   entry8b.o
         8          4          0          0          0          0   entry9a.o
        30          0          0          0          0          0   handlers.o
        36          8          0          0          0         68   init.o
        36          0          0          0          0         60   memcpya.o
        44          0          0          0          0         72   uidiv.o

    ----------------------------------------------------------------------
       172         16          0          0          0        200   Library Totals
         2          0          0          0          0          0   (incl. Padding)

    ----------------------------------------------------------------------

      Code (inc. data)   RO Data    RW Data    ZI Data      Debug   Library Name

       170         16          0          0          0        200   mc_p.l

    ----------------------------------------------------------------------
       172         16          0          0          0        200   Library Totals

    ----------------------------------------------------------------------

==============================================================================


      Code (inc. data)   RO Data    RW Data    ZI Data      Debug   

      5240        592        248        112       7880     190825   Grand Totals
      5240        592        248        112       7880     190825   ELF Image Totals
      5240        592        248        112          0          0   ROM Totals

==============================================================================

    Total RO  Size (Code + RO Data)                 5488 (   5.36kB)
    Total RW  Size (RW Data + ZI Data)              7992 (   7.80kB)
    Total ROM Size (Code + RO Data + RW Data)       5600 (   5.47kB)

==============================================================================

